:100000000C945E010C949A0E0C946F0E0C94440E9A
:100010000C94190E0C94EE0D0C94C30D0C94980DC9
:100020000C946D0D0C947D010C94C50E0C947D0107
:100030000C947D010C947D010C947D010C947D0148
:100040000C94230D0C947D010C947D010C947D0186
:100050000C947D010C947D010C947D010C947D0128
:100060000C947D010C947D010C947D010C947D0118
:100070000C947D010C947D010C947D010C947D0108
:100080000C947D010C947D010C947D010000000A0C
:100090000B0C000000000000010405060000000039
:1000A0000000000000000000000000000000000050
:1000B0000000000000000000000000000000000040
:1000C000004B030000000000130D000000000000C2
:1000D0000101C080000000000000000000000600D8
:1000E0000000000000000000000000000000000010
:1000F00000000000000000000000003F00000000C1
:1001000000000000000000000000000000000000EF
:1001100000000000000000000000000000000000DF
:1001200000000000000000000000000000000000CF
:100130000001001400020014000300140003001466
:100140000003001400030014000400140004001451
:1001500000050014000600140000801F0000811F2D
:1001600000FF000000FF000000FF000000FF000093
:1001700000FF000000FF000000FF000000FF000083
:1001800000FF000000FF000000FF000000FF000073
:1001900000FF000000FF000000FF000000FF000063
:1001A00000FF000000FF000000FF000000FF000053
:1001B00000FF000000FF000000FF000000FF000043
:1001C00000FF000000FF000000FF000000FF000033
:1001D000007000740078007C008000840088008C2F
:1001E000009000940098009C00A000A400A800AC1F
:1001F00000B000B400B800BC00C000C400C800CC0F
:1002000000D000D400D800DC00E000E400E800ECFE
:1002100000F000F400F800FC000001040108010CEB
:100220000100003B00380035003200230062006509
:100230000000003A00370034003100220061006401
:100240000001020408102040800102040810204030
:1002500080081001020408102040800102010204FD
:100260000810204080048040201008040201010290
:1002700004081020408000003900360033003000B0
:10028000210020006300050505050505050502029E
:100290000202020202020707040404040404040424
:1002A000070703030303030303030701010101011C
:1002B00001010106060606060606060011241FBEF9
:1002C000CFEFD0E1DEBFCDBF11E0A0E0B1E0ECEABE
:1002D000F4E200E00BBF02C007900D92A634B10714
:1002E000D9F723E0A6E4B1E001C01D92A93AB20714
:1002F000E1F70E941E0F0C9454120C940000E82F9A
:10030000F0E0E557FC4F8085861739F06087618BF8
:1003100080918D03836080938D030895262F30E0B4
:10032000909191039078691729F090918D039C60CA
:1003300090938D033695322F222737952795822B60
:1003400080939103809392030895CF93DF9390E07D
:10035000FC01EF5BFD4F24918A579D4FFC01849176
:100360008823C9F090E0880F991FFC01EF5CFD4FD6
:10037000A591B491FC01EF5DFD4FC591D491611140
:100380000DC09FB7F8948C91209582238C9388811F
:10039000282328839FBFDF91CF910895623051F4C5
:1003A0009FB7F8943C91822F809583238C93E881AA
:1003B0002E2BEFCF8FB7F894EC912E2B2C938FBF71
:1003C000EACF3FB7F8948091680190916901A091BC
:1003D0006A01B0916B0122B706B600FE05C02F3F3F
:1003E00019F00196A11DB11D3FBFBA2FA92F982F5B
:1003F0008827BC01CD01620F711D811D911D42E056
:10040000660F771F881F991F4A95D1F70895883086
:1004100008F5E82FF0E0EE0FFF1FE85EFE4F718356
:1004200060838150873068F4E82FF0E0E65EFD4F8E
:100430000C9403112B023802460254025B0266023E
:10044000720280916A008C7F482B40936A0089B7C2
:10045000816089BF089580916A00837F440F551F92
:10046000440F551F482B40936A0089B78260F1CF33
:1004700080916A008F7C74E0440F551F7A95E1F7F4
:10048000482B40936A0089B78460E3CF80916A006B
:100490008F7366E0440F551F6A95E1F7482B409330
:1004A0006A0089B78860D5CF8AB78C7F482B4ABF4E
:1004B00089B78061CECF8AB7837F440F551F440F21
:1004C000551F482B4ABF89B78062C3CF8AB78F7C3C
:1004D00024E0440F551F2A95E1F7482B4ABF89B7FE
:1004E0008064B7CF8AB78F7396E0440F551F9A95F3
:1004F000E1F7482B4ABF89B78068ABCFFF920F93D3
:100500001F93CF93DF930E94E10120914A01309124
:100510004B01EB01C21BD30B209170013091710193
:10052000C217D30708F461C0409178015091790156
:100530004130510561F0E091A101F091A2012081CB
:100540003091A301232330916E0123134EC0709389
:100550004B0160934A010091720110917301423086
:10056000510509F419C14330510509F454C1413012
:10057000510561F480914901813009F449C0D8F1F5
:10058000833009F486C0843009F4CFC080917801AB
:1005900090917901019749F1C017D10708F073C113
:1005A000809147018F5F809347018B30F0F081E0AD
:1005B00090E0909379018093780141E050E06EE7FC
:1005C00072E080919F010E94070210926E011092CA
:1005D000490182E590E0909373018093720183E278
:1005E00090E09093710180937001DF91CF911F9102
:1005F0000F91FF900895C017D10730F481E08093E8
:100600004901C0934801C2CF84E080934901BECF25
:10061000C017D107E0F510924901809147018F5F23
:1006200080934701209148018C2F0C2E000C990BD0
:10063000821B910927FD939597FF03C091958195A2
:100640009109499794F2109279011092780182E908
:1006500090E0909373018093720182E590E0909313
:1006600071018093700110924701F0906F014F2D3E
:1006700050E06EE772E080919F010E940702809136
:10068000A30193E0F91229C080936E017FCF83E02C
:10069000BCCFC017D10718F51092790110927801DC
:1006A00082E990E0909373018093720182E590E07B
:1006B000909371018093700110924701F0906F0147
:1006C0004F2D50E06EE772E080919F010E9407027B
:1006D0008091A30133E0F316B9F280E0D5CF909179
:1006E0006F01933009F482E080936F0182E090E023
:1006F000909379018093780182E990E0909373015F
:100700008093720182E590E0909371018093700173
:1007100010927E018091470180937F0110927B01AE
:1007200010927D0110927C01C9CFC017D107A8F4A7
:10073000109279011092780182E990E09093730110
:100740008093720182E590E0909371018093700133
:100750001092470110927B0188CF82E090E0909345
:1007600079018093780182E990E0909373018093FE
:10077000720182E590E09093710180937001109274
:100780007E018091470180937F0110927B0110923E
:100790007D0110927C0169CF90917B019F5F9093C6
:1007A0007B0180917C01880FC017D107E0F0809316
:1007B0007C01983009F0F0CEE0917E01E630A9F49A
:1007C000109279011092780182E990E09093730180
:1007D0008093720182E590E09093710180937001A3
:1007E00010927B01D3CE8160E2CF83E090E09093C2
:1007F00079018093780190917C0181E08E0F809344
:100800007E01F0E0E858FE4F908780917D018927B6
:1008100080937D01BBCEC017D10728F510927901D6
:100820001092780110927B0182E990E0909373011D
:100830008093720182E590E0909371018093700142
:1008400080917D018111ACCE88E0EEE7F1E0A6E871
:10085000B1E001900D928A95E1F781E080937A01F1
:100860001092470193CE80917E01863009F4A8CF83
:1008700082E090E0909379018093780110927B015F
:1008800010927C0183CE10924701AFCE0895CF9392
:10089000DF93DC01EC91F0E0EE0FFF1FEA58FD4F13
:1008A000C591D491988111968C91982381E009F497
:1008B00080E0DF91CF910895DC011296ED91FC91DB
:1008C000139711969C911197808161110EC090959C
:1008D000982390831496ED91FC9115979081119631
:1008E0008C918095892380830895982B9083089517
:1008F00080E090E0892B29F08091A70183FD0C9482
:1009000000000895009731F160918E0370918F037C
:100910008617970709F06DC041504A30D8F4E42F8C
:10092000F0E0EB56FB4F0C9403119F04AB04B604AC
:10093000C604CD04D404DB04E204E904F10480918C
:100940009303281739F02093930380918D038160DE
:1009500080938D0308959091940380EF820F292B4B
:1009600028239217B9F320939403EFCF3091940387
:1009700040E1249FC0011124832B2295207F215F19
:100980008223381739F380939403DFCF8091950346
:10099000281701F320939503D8CF80919603281749
:1009A000C9F220939603D1CF80919703281791F233
:1009B00020939703CACF80919803281759F2209368
:1009C0009803C3CF80919903281721F220939903AC
:1009D000BCCF80919A03281709F4BCCF20939A03C7
:1009E000B4CF80919B03281709F4B4CF20939B03C5
:1009F000ACCF309190033F773817190609F0AACF92
:100A00004230A1F018F4413031F008954330D1F074
:100A1000443049F1089580919C03281709F49ACF36
:100A200020939C0380918D03826092CF90919D03CF
:100A300080EF820F292B2823921709F48BCF209364
:100A40009D03F0CF30919D0340E1249FC00111240C
:100A5000832B2295207F215F8223381709F47ACFD8
:100A600080939D03DFCF80919E03281709F472CFF6
:100A700020939E03D7CF0F93009721F160918E03AF
:100A800070918F038617970729F5822F90E0309198
:100A900091033078231729F020918D03246020934F
:100AA0008D030D3189F00F3779F00F3081F49C01FF
:100AB0003695322F22273795279580919103822BE7
:100AC000809391030F91089540939103F0CF10927A
:100AD0009103EDCF309190033F773817190691F7C6
:100AE000822F90E0309192033078231729F02091E3
:100AF0008D03286020938D039695982F88279795CE
:100B00008795482B40939203DDCF81508C3038F588
:100B1000E82FF0E0E257FA4F0C9403119A05A00574
:100B2000A205A405A605A805AA05B005B405B60545
:100B3000B805BC05809165008E7F8093650008959F
:100B40001E98089596980895AA98089594980895DF
:100B5000AB980895809162008F7B80936200089526
:100B6000809162008F7DF9CF1D9808959798089520
:100B7000809165008D7FE1CF809162008F7EEDCF07
:100B80001F93CF93DF93EC018A819B8110E0892B27
:100B9000E9F48D819E8110E0892B69F588818E7F33
:100BA0008883DF91CF911F910895812F90E0880F66
:100BB000991FEA81FB81E80FF91F0190F081E02D78
:100BC00080818F7780830E9485051F5F8981181738
:100BD00060F3DFCF812F90E0880F991FED81FE81B8
:100BE000E80FF91F0190F081E02D80818F778083DD
:100BF0000E9485051F5F8C81181760F3CFCFFC0121
:100C000090819570953019F4CF010C94C00508952A
:100C1000FC01208120FF03C022FF0C94C005089531
:100C200081508C3038F5E82FF0E0E75EF94F0C94F6
:100C3000031125062B062D062F0631063306350631
:100C40003B063F06410643064706809165008160EA
:100C50008093650008951E9A0895969A0895AA9A19
:100C60000895949A0895AB9A0895809162008064E3
:100C7000809362000895809162008062F9CF1D9A8E
:100C80000895979A0895809165008260E1CF8091E0
:100C900062008061EDCF90918D03882361F09061B7
:100CA00090938D0381E00E94100680918A00887FD6
:100CB00080938A0008959F7E90938D0381E00E9427
:100CC0008505109288001092890080918A008460C6
:100CD000EFCFCF93C82F809190018C1719F08C2FF4
:100CE0000E944B06C0939001CC23F9F02FB7F894E3
:100CF0008091740190917501A0917601B091770176
:100D00002FBF482F392F2A2F8B2F409391013093DB
:100D100092012093930180939401809190018C170C
:100D200049F08C2FCF910C944B0640E030E020E04E
:100D300080E0EBCFCF9108950F931F93CF938C0159
:100D4000C0E0F8018181C81720F0CF911F910F9169
:100D500008958C2F90E0880F991FD8011296ED917D
:100D6000FC91E80FF91F0190F081E02D8081982F10
:100D7000906890838F770E941006CF5FE2CF1F9319
:100D8000CF93DF93EC01288120FD15C022FF13C013
:100D9000322F3160388321FF09C02A813B81232B08
:100DA00051F0DF91CF911F910C949C062D813E81D3
:100DB00010E0232BB9F4DF91CF911F910895812F7B
:100DC00090E0880F991FED81FE81E80FF91F0190D7
:100DD000F081E02D8081982F906890838F770E941A
:100DE00010061F5F8C81181750F3E5CFCF93DF9368
:100DF000EC018881982F9270691789F0662369F059
:100E000082608883888180FF0AC0CE010E94FF052E
:100E1000CE01DF91CF910C94BF068D7FF2CFDF9191
:100E2000CF9108951F93CF93DF93EC012881322F48
:100E3000357099F4322F3160388321FF09C02A813F
:100E40003B81232B51F0DF91CF911F910C949C0695
:100E50002D813E8110E0232BB9F4DF91CF911F91BA
:100E60000895812F90E0880F991FED81FE81E80F92
:100E7000F91F0190F081E02D8081982F9068908378
:100E80008F770E9410061F5F8C81181750F3E5CFF3
:100E9000CF93DF93EC018881982F9270691789F0C6
:100EA000662369F082608883888180FF0AC0CE0152
:100EB0000E940806CE01DF91CF910C9412078D7F1E
:100EC000F2CFDF91CF910895A89A8FE79EE3019723
:100ED000F1F700C00000A89808950C9464071F93D0
:100EE000CF93DF93EC0180918D0384FF0BC08FE0E3
:100EF00090E00E94DD10182F80E190E00E94DD104C
:100F0000181306C0CE01DF91CF911F910C94DD1014
:100F1000FFCF0C946F07CF93DF932091A401309102
:100F2000A5012F3F320721F0C901DF91CF9108952C
:100F30008091A70187FF2BC086FF0FC089E090E05A
:100F40000E948907C82F81E090E00E9489079C2FAA
:100F50009093A5018093A40115C089E090E00E94C0
:100F60008907C82F81E090E00E94890790E4C99F1B
:100F700090011124207C31708F73282B3093A501B0
:100F80002093A4018091A4019091A501CECF85FF6B
:100F90000CC081E190E00E948907C82F82E190E0B7
:100FA0000E948907C05CDD0BD2CF81E090E00E94F7
:100FB000890790E0CDCFCF93863823E0920719F1CF
:100FC00038F4813823E09207D9F0CF910C94DD10EA
:100FD000873823E09207D1F0883823E09207A9F7F9
:100FE00086E893E00E94DD10C82F87E893E00E9416
:100FF000DD1090E02FEFC29F800D911D1124E5CFF1
:1010000081E893E0E2CF86E893E0DFCF87E893E0E2
:10101000DCCF0E946906EEE8F1E081E0878310866C
:10102000E7E9F1E088E0DF011D928A95E9F708958C
:101030000F931F93CF93DF93EC01162FC63883E0F5
:10104000D80781F150F4C13883E0D807F9F0612F57
:10105000CE010E94E510CE011FC0C73883E0D8073B
:1010600041F1C83883E0D80791F786E893E00E9401
:10107000DD10082F87E893E00E94DD10C82FD0E034
:101080008FEF089FC00DD11D1124E1CF81E893E0BF
:101090000E94E51081E893E0DF91CF911F910F91BD
:1010A0000C94DD1086E893E00E94E51086E893E05A
:1010B000F3CF87E893E00E94E51087E893E0ECCF58
:1010C000CF93DF93D0E0C0E0FE01EF53FF4F649178
:1010D000CE010E94E5102196C03181E0D807A1F72A
:1010E00061E081E893E00E94E510C0E0CF5F8C2FC3
:1010F0000E941006CC30D1F7DF91CF9108950C9467
:1011000060081F93CF93DF93EC01162F089779F4B3
:10111000662319F10E94600880E090E0892BB9F005
:10112000612FCE01DF91CF911F910C94000080E0E0
:1011300090E0892BA9F781E0C11590E1D90708F06B
:1011400080E0111105C0DF91CF911F91089581E0DA
:1011500027972297C0F780E0F6CF80E090E0892BB8
:10116000F9F681E0F0CF0F931F93CF93DF93EC015B
:10117000162F80918D0384FF25C0CF30D10561F4F7
:101180008FE090E00E94E5108FE090E0DF91CF913A
:101190001F910F910C94DD108FE090E00E94DD1004
:1011A000082F80E190E00E94DD1008130AC0C730CC
:1011B000D10531F0C830D10529F4183049F0FFCFFE
:1011C000FFCFFFCF612FCE010E94E510CE01DECF11
:1011D0000E94600888E0DF91CF911F910F910895E0
:1011E0008331910588F48131910530F48130910586
:1011F00019F08930910531F42FEF3FEF3093A501BD
:101200002093A4010C94B3088D319105D9F7677F21
:101210006093A70120918E012F73362F307C232BF2
:1012200020938E01E9CFBF92CF92DF92EF92FF928F
:101230000F931F93CF93DF938B01B42E690182FF2D
:1012400023C083FF17C061E0C8010E948108882382
:10125000D9F16B2DC8010E94F0088B1135C0F60141
:10126000DF91CF911F910F91FF90EF90DF90CF9082
:10127000BF90099460E0C8010E948108882321F191
:10128000C8010E948907E9CF842F8770C1E0D0E0B0
:101290007E0101C0EE0C8A95EAF7D42FD870CB01FD
:1012A0000E948907C82FB4FE1CC061E0C8010E94DB
:1012B0008108882349F0DD2389F0CE296C2FC801ED
:1012C0000E94F0088C1759F2DF91CF911F910F9176
:1012D000FF90EF90DF90CF90BF900895E094CE21E3
:1012E000EDCF60E0C8010E948108882369F3CE2118
:1012F000DD2319F0C111B3CFE7CFCC2309F4AFCF71
:10130000E3CFAF92BF92DF92EF92FF920F931F93C2
:10131000CF93DF937C01162FC42FD22ED42FD07EF3
:1013200080918E0187FF2CC0D03EC1F5A0908F0127
:10133000AA20A1F1B12CC5010E948907D82FC501AF
:1013400001960E948907982F8D2FE816F90631F52E
:101350006C2F70E0762F6627662773706D296F5F9C
:101360007F4F28E734E0402F8C2FDF91CF911F91E2
:101370000F91FF90EF90DF90BF90AF900C94130906
:1013800080FD33C0D03609F464C090F4D03209F443
:1013900049C0D03409F45DC0DD2381F1DF91CF91E4
:1013A0001F910F91FF90EF90DF90BF90AF90089545
:1013B000D03A09F484C090F42C2F2F7141E0D0383A
:1013C00069F7612FC701DF91CF911F910F91FF90B6
:1013D000EF90DF90BF90AF900C948204D03C09F462
:1013E00075C0D03E09F4B4CFD9CF0E948B078E15BB
:1013F0009F0541F2E114F10429F2D0CF8C2F8E70B9
:1014000069F680E090E0892B49F28C2F8170DF91A2
:10141000CF911F910F91FF90EF90DF90BF90AF9011
:101420000C940000CF71CF3109F0B8CF4D2D4F771C
:1014300061F0413061F02D2D221F2227221F0DE186
:10144000612FC7010E943B05A9CF41E0F4CF40E0E6
:10145000F2CF2C2F30E08C2F8F71813029F030F0BB
:10146000803121F0813109F540E001C041E095E093
:10147000359527959A95E1F721700DE1612FC70108
:101480000E943B0580E090E0892B09F487CF4C2F28
:10149000612FC701DF91CF911F910F91FF90EF90C6
:1014A000DF90BF90AF900C940000C901880F991F86
:1014B0008E71C4FB442740F9482B4250D8CF2C2FC3
:1014C0002F7043E0C4FF7DCF42E07BCFCF71CE31A0
:1014D00031F0CF3109F062CF2D2D45E072CF2D2DA7
:1014E00044E06FCF4F925F926F927F928F929F9264
:1014F000AF92BF92CF92DF92EF92FF920F931F9322
:10150000CF93DF93C0916C01D0916D0180915F0109
:10151000811116C02FB7F8948091740190917501D4
:10152000A0917601B09177012FBF80935B019093DA
:101530005C01A0935D01B0935E0181E080935F0147
:1015400080915301811111C00E94E1016051710924
:101550008109910960934F0170935001809351016B
:101560009093520181E0809353010E94E1012B018D
:101570003C018FB7F894C0907401D0907501E09051
:101580007601F09077018FBF80915B01BC2CB81A77
:1015900080914F01909150019201281B390BC90194
:1015A00020914E01211169C0FE0130E020E045810B
:1015B0005681C417D50709F056C045E0429F800107
:1015C000439F100D11240E5F1F4F0C0F1D1F109312
:1015D0004D0100934C010115110509F458C0F801A3
:1015E000148213828031910508F492C1853F9140A5
:1015F00008F0B4C18D8D9E8D0E944704F801808350
:1016000081E080934E0140924F01509250016092D0
:10161000510170925201F6E0FB1508F47DC18D8DE9
:101620009E8D0E944704A0904C01B0904D01909176
:101630004E01E92FE695E695E695292F277041E0C2
:1016400050E060E070E004C0440F551F661F771F34
:101650002A95D2F7EA0DFB2DF11D811129C0409585
:101660008081482327C02F5F3F4F359625303105B5
:1016700009F09DCF10E000E0AACF26E02B1508F47A
:101680004BC18031910518F0853F914040F2DF91C8
:10169000CF911F910F91FF90EF90DF90CF90BF906F
:1016A000AF909F908F907F906F905F904F90089534
:1016B0008081482B408381E0890F80934E014092C6
:1016C0004F01509250016092510170925201982F37
:1016D0009770E9F68031E9F4F5018081873780F46D
:1016E000EB8DFC8D309721F4BC8EAB8E07C0FC01D6
:1016F000838194810097D9F7B482A38210924E011E
:10170000C0925B01D0925C01E0925D01F0925E01BB
:10171000BECF8831A9F7F50111811F778DEF782EA3
:10172000710EF7E2F71580F088818130A1F4812EE7
:10173000912C1D3220F51B3228F4112351F121E0A8
:10174000271508F18DE026C085ED810F883250F411
:101750008881823061F3E0914C01F0914D01D48396
:10176000C383CCCF8DEA810F883220F48881833007
:1017700091F7DDCF8EEF810F8230C8F6ECCF8DEA86
:10178000810F8230F8F2C4018F579C4F0E94DB0713
:1017900001C08881F501028190819B3739F19F3723
:1017A00009F46CC09737B9F60813D5CF61E08D8D79
:1017B0009E8D0E945C048D8D9E8D0E94120F8FE67F
:1017C00097E10197F1F700C00000AD8DBE8D149632
:1017D000ED91FC911597808111969C91892B8083C6
:1017E00060E08D8D9E8D0E945C04B5CF202F287007
:1017F000302F377004FF35C01D3278F51B3208F0EA
:10180000AACF91E0971508F0A6CF41E050E060E044
:1018100070E004C0440F551F661F771F3A95D2F73A
:10182000182F142B211103C0142F10951823612F8A
:10183000C4018F579C4F0E94180818138CCF61E089
:101840008D8D9E8D0E945C048D8D9E8D0E94120F49
:10185000EFE6F7E13197F1F7B6CF13551230A8F65E
:101860007ACF90E002C0959587953A95E2F781701E
:1018700099272817190609F06ECF98CF1B32D9F196
:1018800090F51330C1F1143009F465CF602FC40115
:101890008F579C4F0E94180808131FC061E08D8D60
:1018A0009E8D0E945C048D8D9E8D0E94120F8FE68E
:1018B00097E10197F1F700C00000AD8DBE8D149641
:1018C000ED91FC911597808111969C91892B8083D5
:1018D00060E08D8D9E8D0E945C0411113CCF043020
:1018E00078F4088338CF133531F0143509F433CF49
:1018F0001C3261F630CF083081F70E9460089FCF1C
:1019000061E081E893E00E94180881E0888323CF9A
:10191000F6E0FB1508F0BBCE99E09B1508F0B7CEBA
:10192000C0925B01D0925C01E0925D01F0925E0199
:1019300000914C0110914D018D8D9E8D0E944704A8
:10194000F801808381E080934E0140924F015092D4
:101950005001609251017092520199CE26E02B15F0
:10196000D8F295CE9F92AF92BF92CF92DF92EF9234
:10197000FF920F931F93CF93DF937C016B01942E03
:1019800081E0F701481328C0A280B380E7012196C7
:10199000A114B10431F562E070E081E090E00E94B2
:1019A0000C118C01009731F0FC01D182C08288813A
:1019B0008F5F8883F1E09F1242C0F7011383028397
:1019C000DF91CF911F910F91FF90EF90DF90CF901B
:1019D000BF90AF909F900895A580B680E7012496B0
:1019E000D7CF88818F5F8883C82FD0E062E070E016
:1019F000CE010E940C118C0120E0AE014150510932
:101A0000822F90E08417950764F0C150D048CC0F26
:101A1000DD1FC00FD11FD982C882C5010E94C41129
:101A2000C9CF880F991FF501E80FF91F60817181F7
:101A3000800F911FFC01718360832F5FE1CFF7015D
:101A400016830583BDCF1F920F920FB60F921124FC
:101A50002F933F938F939F93AF93BF938091740184
:101A600090917501A0917601B09177013091670155
:101A700023E0230F2D3768F126E8230F0296A11DDE
:101A8000B11D209367018093740190937501A09319
:101A90007601B09377018091680190916901A091DE
:101AA0006A01B0916B010196A11DB11D809368017F
:101AB00090936901A0936A01B0936B01BF91AF91BC
:101AC0009F918F913F912F910F900FBE0F901F907C
:101AD00018950196A11DB11DD4CF1F920F920FB67C
:101AE0000F9211240BB60F922F933F934F935F9356
:101AF0006F937F938F939F93AF93BF93EF93FF93D6
:101B0000E0912601F09127010995FF91EF91BF9196
:101B1000AF919F918F917F916F915F914F913F9185
:101B20002F910F900BBE0F900FBE0F901F90189526
:101B30001F920F920FB60F9211240BB60F922F9394
:101B40003F934F935F936F937F938F939F93AF9345
:101B5000BF93EF93FF93E0912401F0912501099544
:101B6000FF91EF91BF91AF919F918F917F916F9175
:101B70005F914F913F912F910F900BBE0F900FBE31
:101B80000F901F9018951F920F920FB60F9211246D
:101B90000BB60F922F933F934F935F936F937F9367
:101BA0008F939F93AF93BF93EF93FF93E0912201A5
:101BB000F09123010995FF91EF91BF91AF919F9112
:101BC0008F917F916F915F914F913F912F910F90E6
:101BD0000BBE0F900FBE0F901F9018951F920F9283
:101BE0000FB60F9211240BB60F922F933F934F9382
:101BF0005F936F937F938F939F93AF93BF93EF9375
:101C0000FF93E0912001F09121010995FF91EF915F
:101C1000BF91AF919F918F917F916F915F914F9104
:101C20003F912F910F900BBE0F900FBE0F901F9002
:101C300018951F920F920FB60F9211240BB60F92A8
:101C40002F933F934F935F936F937F938F939F93C4
:101C5000AF93BF93EF93FF93E0911E01F0911F01AB
:101C60000995FF91EF91BF91AF919F918F917F91D6
:101C70006F915F914F913F912F910F900BBE0F90FD
:101C80000FBE0F901F9018951F920F920FB60F92D4
:101C900011240BB60F922F933F934F935F936F9343
:101CA0007F938F939F93AF93BF93EF93FF93E091B5
:101CB0001C01F0911D010995FF91EF91BF91AF912A
:101CC0009F918F917F916F915F914F913F912F9154
:101CD0000F900BBE0F900FBE0F901F9018951F9284
:101CE0000F920FB60F9211240BB60F922F933F93C2
:101CF0004F935F936F937F938F939F93AF93BF9314
:101D0000EF93FF93E0911A01F0911B010995FF9168
:101D1000EF91BF91AF919F918F917F916F915F9163
:101D20004F913F912F910F900BBE0F900FBE0F90D0
:101D30001F9018951F920F920FB60F9211240BB699
:101D40000F922F933F934F935F936F937F938F9354
:101D50009F93AF93BF93EF93FF93E0911801F0919E
:101D600019010995FF91EF91BF91AF919F918F91CB
:101D70007F916F915F914F913F912F910F900BBE8B
:101D80000F900FBE0F901F9018951F920F920FB6D5
:101D90000F9211240BB60F922F933F934F935F93A3
:101DA0006F937F938F939F93AF93BF93CF93DF9363
:101DB000EF93FF937894CEE2D1E0E991F99180819D
:101DC00087FF08C08F77209146019181921720F1FB
:101DD0000E94100681E0C634D80779F786E984BDF1
:101DE000809146018F5F8032D1F080934601FF9150
:101DF000EF91DF91CF91BF91AF919F918F917F91A3
:101E00006F915F914F913F912F910F900BBE0F906B
:101E10000FBE0F901F9018950E948505DBCF109282
:101E20004601E5CFDC011496ED91FC911597908168
:101E300011968C918095892380830895789483B737
:101E40008C6483BF87B7816087BF82E08EBD8EB50B
:101E500081608EBD8FB581608FBD85B5846085BD85
:101E600085B5806485BD80918A00836080938A00F7
:101E700080918B00816080938B0087E886B91AB8C7
:101E80000FB6F894A89581B5886181BD11BC0FBECD
:101E90001ABA17BA14BA11BA12B810926100109295
:101EA000640061E081E00E94A501EDE8F0E094911A
:101EB000E2E4F2E02491E7E8F2E08491882341F142
:101EC0009923C1F091509C30A8F4E92FF0E0E55936
:101ED000F04F0C940311CC10CC107A0F770FB41084
:101EE000B710BA107A0F7A0FBE10C410C8109FB581
:101EF0009F779FBDE82FF0E0EE0FFF1FEF5DFD4FD6
:101F0000A591B4918FB7F894EC912E2B2C938FBFA1
:101F1000A09A80916400816080936400169A8E9AE2
:101F2000A29A8C9AA39A8091610080648093610048
:101F300080916100806280936100159A8F9A8091F0
:101F4000640082608093640080916100806180936E
:101F50006100D0E0C0E0FE01EF53FF4F6491CE017D
:101F60000E94E5102196C03121E0D207A1F761E07F
:101F700081E893E00E94E510C0E0CF5F8C2F0E94C3
:101F80001006CC30D1F714BC15BC85B5887F85BD53
:101F900087B7806487BF85B5836085BD81EDA82E36
:101FA00081E0B82E9EE2E92E91E0F92E670127E04C
:101FB000922EF50105911491C8010E94DD10C82FE1
:101FC000C80101960E94DD10D82F0E5F1F4FC80177
:101FD0000E94DD10803228F06FE1C8010E94F610E7
:101FE0008FE1D6010D911D916D01F8018183D038EB
:101FF00009F4D6C0D13809F4DBC0D1110FC0C99D96
:10200000E0011124C855DE4F41E0B801CE010E9425
:10201000B20C40E0B801CE010E94B20CF2E0AF0E6B
:10202000B11C26E4C21621E0D20609F0C2CF85E138
:1020300090E00E94DD1080FF05C09091AF01946098
:102040009093AF0181FF05C09091B6019460909389
:10205000B60182FF05C09091BD0194609093BD01CF
:1020600083FF05C09091C40194609093C40184FFE4
:1020700005C09091CB0194609093CB0185FF05C082
:102080009091D20194609093D20186FF05C0909107
:10209000D90194609093D90187FF05C08091E00138
:1020A00084608093E00186E190E00E94DD1080FF73
:1020B00005C09091A80194609093A80182FF05C08B
:1020C0009091E70194609093E70183FF05C09091A0
:1020D000EE0194609093EE0184FF05C09091F501AC
:1020E00094609093F50185FF05C09091FC01946088
:1020F0009093FC0186FF05C0909103029460909339
:10210000030287FF05C080910A02846080930A025F
:10211000D701ED91FD917D0180818F7780830E94B1
:102120008505B6E4EB16B1E0FB0691F70BE813E08A
:10213000C8EAD1E0CE010E941207CE010E94BF067C
:10214000EFEFF9E628E1E150F0402040E1F700C070
:102150000000CE010E940806CE010E94FF052796CE
:102160000C171D0739F7E4CF9FB59F7DC2CE9FB5F1
:10217000977FBFCE95B59F7D95BDBCCE90918B00CE
:102180009F7790938B00B6CE90918B009F7DF9CF77
:1021900090918B00977FF5CF93B79F7D93BFAACE89
:1021A000C99DC001112440E0B80188559E4F34CF2D
:1021B000C99DC001112441E0F7CFE199FECF9FBB3B
:1021C0008EBBE09A99278DB30895262FE199FECF13
:1021D0009FBB8EBBE09A01970DB2021631F02DBB6A
:1021E0000FB6F894E29AE19A0FBE0895262FE1996E
:1021F000FECF9FBB8EBB2DBB0FB6F894E29AE19A3F
:102200000FBE01960895EE0FFF1F0024001C0BBEA9
:102210000790F691E02D09940F931F93CF93DF93CE
:10222000869F8001879F100D969F100D1124C80175
:102230000E942811EC01009729F0A80170E060E0ED
:102240000E944D12CE01DF91CF911F910F91089501
:102250000F931F93CF93DF938230910510F482E0A8
:1022600090E0E091A703F091A80330E020E0B0E017
:10227000A0E0309799F42115310509F44AC0281BD4
:10228000390B24303105D8F58A819B8161157105A0
:1022900089F1FB0193838283FE0111C0408151814A
:1022A0000281138148175907E0F04817590799F43C
:1022B000109761F012960C93129713961C93329616
:1022C000CF01DF91CF911F910F9108950093A70344
:1022D0001093A803F4CF2115310551F0421753078D
:1022E00038F0A901DB019A01BD01DF01F801C1CF7E
:1022F000EF01F9CF9093A8038093A703CDCFFE0100
:10230000E20FF31F8193919322503109398328837F
:10231000D7CF2091A5033091A603232B41F4209120
:102320002A0130912B013093A6032093A50320911D
:102330002801309129012115310541F42DB73EB70F
:1023400040912C0150912D01241B350BE091A503E8
:10235000F091A603E217F307A0F42E1B3F0B2817FA
:10236000390778F0AC014E5F5F4F2417350748F00E
:102370004E0F5F1F5093A6034093A5038193919343
:102380009FCFF0E0E0E09CCFCF93DF930097E9F0A0
:10239000FC01329713821282A091A703B091A80387
:1023A000ED0130E020E01097A1F420813181820F0F
:1023B000931F2091A5033091A6032817390709F030
:1023C00061C0F093A603E093A503DF91CF91089538
:1023D000EA01CE17DF07E8F54A815B819E014115CE
:1023E0005105B1F7E901FB83EA8349915991C40F83
:1023F000D51FEC17FD0761F4808191810296840F4F
:10240000951FE90199838883828193819B838A83C5
:10241000F0E0E0E012968D919C9113970097B9F54A
:102420002D913C911197CD010296820F931F20911F
:10243000A5033091A6032817390739F6309751F5CF
:102440001092A8031092A703B093A603A093A5032C
:10245000BCCFD383C28340815181840F951FC8179D
:10246000D90761F44E5F5F4F88819981480F591FEA
:10247000518340838A819B81938382832115310517
:1024800009F0B0CFF093A803E093A7039ECFFD011E
:10249000DC01C0CF13821282D7CFDC0101C06D9363
:0C24A00041505040E0F70895F894FFCF41
:1024AC000CFF0BFF0AFF09FF08FF07FF06FF05FFE4
:1024BC0004FF03FF02FF01FF4604000000000000C0
:1024CC0000000000000000000000A90380001601BD
:1024DC001401120110010E010C010A010801060180
:0624EC00040102010001E1
:00000001FF
