:100000000C942E010C9471080C9446080C941B0857
:100010000C94F0070C94C5070C949A070C946F0786
:100020000C9444070C944D010C949C080C944D01C5
:100030000C944D010C944D010C944D010C944D0108
:100040000C94FA060C944D010C944D010C944D0146
:100050000C944D010C944D010C944D010C944D01E8
:100060000C944D010C944D010C944D010C944D01D8
:100070000C944D010C944D010C944D010C944D01C8
:100080000C944D010C944D010C944D014B03000058
:10009000000000130D0000000000000101C08000FE
:1000A000000000000000000000060000000000004A
:1000B0000000000000000000000000000000000040
:1000C0000000000000003F000000000000000000F1
:1000D0000000000000000000000000000000000020
:1000E0000000000000000000000000000000000010
:1000F00000000000000000000000000001001400EB
:100100000200140003001400030014000300140094
:10011000030014000400140004001400050014007F
:100120000600140000801F0000811F00FF00000077
:10013000FF000000FF000000FF000000FF000000C3
:10014000FF000000FF000000FF000000FF000000B3
:10015000FF000000FF000000FF000000FF000000A3
:10016000FF000000FF000000FF000000FF00000093
:10017000FF000000FF000000FF000000FF00000083
:10018000FF000000FF000000FF000000FF00000073
:10019000FF000000FF000000FF00000000003A0028
:1001A00037003400310022006100640000003B0091
:1001B00038003500320023006200650005050505A2
:1001C00005050505020202020202020207070404F5
:1001D00004040404040407070303030303030303E1
:1001E00007010101010101010106060606060606D6
:1001F000060102040810204080010204081020407B
:10020000800810010204081020408001020102044D
:1002100008102040800480402010080402010102E0
:100220000408102040800000000A0B0C00000000B1
:1002300000000104050600000000000000000000AE
:1002400000000000000000000000000000000000AE
:1002500000000000000000000000000011241FBE8C
:10026000CFEFD0E1DEBFCDBF11E0A0E0B1E0E6ED21
:10027000F3E100E00BBF02C007900D92A034B1077C
:10028000D9F721E0A0E4B1E001C01D92AE37B2077A
:10029000E1F70E94E9080C94E9090C940000E82FAA
:1002A000F0E0EC59FE4F8085861739F06087618B4E
:1002B000809166018360809366010895262F30E067
:1002C00090916A019078691729F0909166019C607D
:1002D000909366013695322F222737952795822BEA
:1002E00080936A0180936B010895089580E090E007
:1002F000892B29F08091630183FD0C9400000895FF
:10030000009731F160916701709168018617970736
:1003100009F06DC041504A30D8F4E42FF0E0ED56BA
:10032000FE4F0C94E0099D01A901B401C401CB0169
:10033000D201D901E001E701EF0180916C0128179A
:1003400039F020936C018091660181608093660191
:10035000089590916D0180EF820F292B2823921729
:10036000B9F320936D01EFCF30916D0140E1249FEF
:10037000C0011124832B2295207F215F822338170F
:1003800039F380936D01DFCF80916E01281701F35F
:1003900020936E01D8CF80916F012817C9F2209366
:1003A0006F01D1CF80917001281791F220937001D5
:1003B000CACF80917101281759F220937101C3CFE0
:1003C00080917201281721F220937201BCCF809195
:1003D0007301281709F4BCCF20937301B4CF809127
:1003E0007401281709F4B4CF20937401ACCF309175
:1003F00069013F773817190609F0AACF4230A1F0FA
:1004000018F4413031F008954330D1F0443049F1CF
:10041000089580917501281709F49ACF20937501EA
:1004200080916601826092CF9091760180EF820F79
:10043000292B2823921709F48BCF20937601F0CF34
:100440003091760140E1249FC0011124832B229535
:10045000207F215F8223381709F47ACF80937601B9
:10046000DFCF80917701281709F472CF20937701AD
:10047000D7CF0F93009721F16091670170916801C8
:100480008617970729F5822F90E030916A0130781E
:10049000231729F0209166012460209366010D3115
:1004A00089F00F3779F00F3081F49C013695322FA7
:1004B00022273795279580916A01822B80936A01C4
:1004C0000F91089540936A01F0CF10926A01EDCF29
:1004D000309169013F773817190691F7822F90E024
:1004E00030916B013078231729F020916601286044
:1004F000209366019695982F882797958795482B86
:1005000040936B01DDCF81508C3038F5E82FF0E05F
:10051000E457FD4F0C94E00998029E02A002A2024B
:10052000A402A602A802AE02B202B402B602BA0245
:10053000809165008E7F8093650008951E980895D0
:1005400096980895AA98089594980895AB98089558
:10055000809162008F7B8093620008958091620099
:100560008F7DF9CF1D980895979808958091650023
:100570008D7FE1CF809162008F7EEDCF1F93CF936F
:10058000DF93EC018A819B8110E0892BE9F48D8156
:100590009E8110E0892B69F588818E7F8883DF91A9
:1005A000CF911F910895812F90E0880F991FEA81C4
:1005B000FB81E80FF91F0190F081E02D80818F779A
:1005C00080830E9483021F5F8981181760F3DFCF49
:1005D000812F90E0880F991FED81FE81E80FF91FB0
:1005E0000190F081E02D80818F7780830E948302CB
:1005F0001F5F8C81181760F3CFCFFC01908195703D
:10060000953019F4CF010C94BE020895FC012081AD
:1006100020FF03C022FF0C94BE02089581508C304D
:1006200038F5E82FF0E0E95EFC4F0C94E009230375
:1006300029032B032D032F033103330339033D0318
:100640003F0341034503809165008160809365000D
:1006500008951E9A0895969A0895AA9A0895949ACC
:100660000895AB9A0895809162008064809362003F
:100670000895809162008062F9CF1D9A0895979A3B
:100680000895809165008260E1CF80916200806171
:10069000EDCF90916601882361F09061909366019F
:1006A00081E00E940E0380918A00887F80938A00F7
:1006B00008959F7E9093660181E00E9483021092CC
:1006C00088001092890080918A008460EFCFCF93D8
:1006D000C82F80914C018C1719F08C2F0E94490370
:1006E000C0934C01CC23F9F02FB7F89480914601C8
:1006F00090914701A0914801B09149012FBF482F27
:10070000392F2A2F8B2F40934D0130934E01209388
:100710004F018093500180914C018C1749F08C2F30
:10072000CF910C94490340E030E020E080E0EBCF33
:10073000CF9108950F931F93CF938C01C0E0F801E0
:100740008181C81720F0CF911F910F9108958C2FB0
:1007500090E0880F991FD8011296ED91FC91E80F57
:10076000F91F0190F081E02D8081982F906890838F
:100770008F770E940E03CF5FE2CF1F93CF93DF935B
:10078000EC01288120FD15C022FF13C0322F3160FB
:10079000388321FF09C02A813B81232B51F0DF914F
:1007A000CF911F910C949A032D813E8110E0232B51
:1007B000B9F4DF91CF911F910895812F90E0880FB8
:1007C000991FED81FE81E80FF91F0190F081E02D66
:1007D0008081982F906890838F770E940E031F5F0F
:1007E0008C81181750F3E5CFCF93DF93EC0188810C
:1007F000982F9270691789F0662369F08260888368
:10080000888180FF0AC0CE010E94FD02CE01DF91E7
:10081000CF910C94BD038D7FF2CFDF91CF910895DE
:100820001F93CF93DF93EC012881322F357099F419
:10083000322F3160388321FF09C02A813B81232B6D
:1008400051F0DF91CF911F910C949A032D813E813D
:1008500010E0232BB9F4DF91CF911F910895812FE0
:1008600090E0880F991FED81FE81E80FF91F01903C
:10087000F081E02D8081982F906890838F770E947F
:100880000E031F5F8C81181750F3E5CFCF93DF93D2
:10089000EC018881982F9270691789F0662369F0BE
:1008A00082608883888180FF0AC0CE010E9406038F
:1008B000CE01DF91CF910C9410048D7FF2CFDF91A8
:1008C000CF910895A89A8FE79EE30197F1F700C0B2
:1008D0000000A89808950C9462040E946703EAE45B
:1008E000F1E081E087831086E3E5F1E088E0DF0155
:1008F0001D928A95E9F708951F93CF93DF93EC013A
:100900008091660184FF0BC08FE090E00E94C709D0
:10091000182F80E190E00E94C709181306C0CE018D
:10092000DF91CF911F910C94C709FFCF0C947C04E9
:10093000CF93DF9320916001309161012F3F320707
:1009400021F0C901DF91CF9108958091630187FF64
:100950002BC086FF0FC089E090E00E949604C82F4C
:1009600081E090E00E9496049C2F90936101809317
:10097000600115C089E090E00E949604C82F81E0D4
:1009800090E00E94960490E4C99F90011124207C7D
:1009900031708F73282B3093610120936001809117
:1009A000600190916101CECF85FF0CC081E190E0A4
:1009B0000E949604C82F82E190E00E949604C05CD9
:1009C000DD0BD2CF81E090E00E94960490E0CDCF85
:1009D000CF93DF93D0E0C0E0FE01E457FF4F649176
:1009E000CE010E94CF092196C03181E0D807A1F73E
:1009F00061E081E893E00E94CF09C0E0CF5F8C2FD7
:100A00000E940E03CC30D1F7DF91CF9108950C9462
:100A1000E8041F93CF93DF93EC01162F089779F426
:100A2000662319F10E94E80480E090E0892BB9F078
:100A3000612FCE01DF91CF911F910C94000080E0D7
:100A400090E0892BA9F781E0C11590E1D90708F062
:100A500080E0111105C0DF91CF911F91089581E0D1
:100A600027972297C0F780E0F6CF80E090E0892BAF
:100A7000F9F681E0F0CF0F931F93CF93DF93EC0152
:100A8000162F8091660184FF25C0CF30D10561F417
:100A90008FE090E00E94CF098FE090E0DF91CF914E
:100AA0001F910F910C94C7098FE090E00E94C70935
:100AB000082F80E190E00E94C70908130AC0C730E0
:100AC000D10531F0C830D10529F4183049F0FFCFF5
:100AD000FFCFFFCF612FCE010E94CF09CE01DECF25
:100AE0000E94E80488E0DF91CF911F910F91089553
:100AF0008331910588F48131910530F4813091057D
:100B000019F08930910531F42FEF3FEF30936101F7
:100B1000209360010C943B058D319105D9F7677FD7
:100B20006093630120914A012F73362F307C232B71
:100B300020934A01E9CFBF92CF92DF92EF92FF92CA
:100B40000F931F93CF93DF938B01B42E690182FF24
:100B500023C083FF17C061E0C8010E9409058823F4
:100B6000D9F16B2DC8010E9478058B1135C0F601B3
:100B7000DF91CF911F910F91FF90EF90DF90CF9079
:100B8000BF90099460E0C8010E940905882321F103
:100B9000C8010E949604E9CF842F8770C1E0D0E09D
:100BA0007E0101C0EE0C8A95EAF7D42FD870CB01F4
:100BB0000E949604C82FB4FE1CC061E0C8010E94C8
:100BC0000905882349F0DD2389F0CE296C2FC8015F
:100BD0000E9478058C1759F2DF91CF911F910F91E8
:100BE000FF90EF90DF90CF90BF900895E094CE21DA
:100BF000EDCF60E0C8010E940905882369F3CE218A
:100C0000DD2319F0C111B3CFE7CFCC2309F4AFCF67
:100C1000E3CFAF92BF92DF92EF92FF920F931F93B9
:100C2000CF93DF937C01162FC42FD22ED42FD07EEA
:100C300080914A0187FF2CC0D03EC1F5A0904B01A6
:100C4000AA20A1F1B12CC5010E949604D82FC5019C
:100C500001960E949604982F8D2FE816F90631F51B
:100C60006C2F70E0762F6627662773706D296F5F93
:100C70007F4F26E731E0402F8C2FDF91CF911F91DE
:100C80000F91FF90EF90DF90BF90AF900C949B0579
:100C900080FD33C0D03609F464C090F4D03209F43A
:100CA00049C0D03409F45DC0DD2381F1DF91CF91DB
:100CB0001F910F91FF90EF90DF90BF90AF9008953C
:100CC000D03A09F484C090F42C2F2F7141E0D03831
:100CD00069F7612FC701DF91CF911F910F91FF90AD
:100CE000EF90DF90BF90AF900C948001D03C09F45E
:100CF00075C0D03E09F4B4CFD9CF0E9498048E15A8
:100D00009F0541F2E114F10429F2D0CF8C2F8E70AF
:100D100069F680E090E0892B49F28C2F8170DF9199
:100D2000CF911F910F91FF90EF90DF90BF90AF9008
:100D30000C940000CF71CF3109F0B8CF4D2D4F7713
:100D400061F0413061F02D2D221F2227221F0DE17D
:100D5000612FC7010E943902A9CF41E0F4CF40E0E2
:100D6000F2CF2C2F30E08C2F8F71813029F030F0B2
:100D7000803121F0813109F540E001C041E095E08A
:100D8000359527959A95E1F721700DE1612FC701FF
:100D90000E94390280E090E0892B09F487CF4C2F24
:100DA000612FC701DF91CF911F910F91FF90EF90BD
:100DB000DF90BF90AF900C940000C901880F991F7D
:100DC0008E71C4FB442740F9482B4250D8CF2C2FBA
:100DD0002F7043E0C4FF7DCF42E07BCFCF71CE3197
:100DE00031F0CF3109F062CF2D2D45E072CF2D2D9E
:100DF00044E06FCF1F920F920FB60F9211242F93E2
:100E00003F938F939F93AF93BF93809146019091AF
:100E10004701A0914801B09149013091450123E07B
:100E2000230F2D3768F126E8230F0296A11DB11D6F
:100E3000209345018093460190934701A093480178
:100E4000B09349018091410190914201A0914301E9
:100E5000B09144010196A11DB11D80934101909371
:100E60004201A0934301B0934401BF91AF919F9180
:100E70008F913F912F910F900FBE0F901F9018955B
:100E80000196A11DB11DD4CF1F920F920FB60F92E4
:100E900011240BB60F922F933F934F935F936F9351
:100EA0007F938F939F93AF93BF93EF93FF93E091C3
:100EB0002601F09127010995FF91EF91BF91AF9124
:100EC0009F918F917F916F915F914F913F912F9162
:100ED0000F900BBE0F900FBE0F901F9018951F9292
:100EE0000F920FB60F9211240BB60F922F933F93D0
:100EF0004F935F936F937F938F939F93AF93BF9322
:100F0000EF93FF93E0912401F09125010995FF9162
:100F1000EF91BF91AF919F918F917F916F915F9171
:100F20004F913F912F910F900BBE0F900FBE0F90DE
:100F30001F9018951F920F920FB60F9211240BB6A7
:100F40000F922F933F934F935F936F937F938F9362
:100F50009F93AF93BF93EF93FF93E0912201F091A2
:100F600023010995FF91EF91BF91AF919F918F91CF
:100F70007F916F915F914F913F912F910F900BBE99
:100F80000F900FBE0F901F9018951F920F920FB6E3
:100F90000F9211240BB60F922F933F934F935F93B1
:100FA0006F937F938F939F93AF93BF93EF93FF9331
:100FB000E0912001F09121010995FF91EF91BF91FE
:100FC000AF919F918F917F916F915F914F913F91E1
:100FD0002F910F900BBE0F900FBE0F901F90189582
:100FE0001F920F920FB60F9211240BB60F922F93F0
:100FF0003F934F935F936F937F938F939F93AF93A1
:10100000BF93EF93FF93E0911E01F0911F010995AB
:10101000FF91EF91BF91AF919F918F917F916F91D0
:101020005F914F913F912F910F900BBE0F900FBE8C
:101030000F901F9018951F920F920FB60F921124C8
:101040000BB60F922F933F934F935F936F937F93C2
:101050008F939F93AF93BF93EF93FF93E0911C0106
:10106000F0911D010995FF91EF91BF91AF919F9173
:101070008F917F916F915F914F913F912F910F9041
:101080000BBE0F900FBE0F901F9018951F920F92DE
:101090000FB60F9211240BB60F922F933F934F93DD
:1010A0005F936F937F938F939F93AF93BF93EF93D0
:1010B000FF93E0911A01F0911B010995FF91EF91C7
:1010C000BF91AF919F918F917F916F915F914F9160
:1010D0003F912F910F900BBE0F900FBE0F901F905E
:1010E00018951F920F920FB60F9211240BB60F9204
:1010F0002F933F934F935F936F937F938F939F9320
:10110000AF93BF93EF93FF93E0911801F091190112
:101110000995FF91EF91BF91AF919F918F917F9131
:101120006F915F914F913F912F910F900BBE0F9058
:101130000FBE0F901F9018951F920F920FB60F922F
:1011400011240BB60F922F933F934F935F936F939E
:101150007F938F939F93AF93BF93CF93DF93EF933F
:10116000FF937894C8E2D1E0E991F991808187FFFB
:1011700008C08F77209140019181921720F10E9441
:101180000E0381E0C034D80779F786E984BD8091E9
:1011900040018F5F8032D1F080934001FF91EF9149
:1011A000DF91CF91BF91AF919F918F917F916F917F
:1011B0005F914F913F912F910F900BBE0F900FBEFB
:1011C0000F901F9018950E948302DBCF1092400170
:1011D000E5CF789483B78C6483BF87B7816087BF7E
:1011E00082E08EBD8EB581608EBD8FB581608FBD72
:1011F00085B5846085BD85B5806485BD80918A0094
:10120000836080938A0080918B00816080938B0043
:1012100087E886B91AB80FB6F894A89581B58861A1
:1012200081BD11BC0FBE1ABA17BA14BA11BA12B8DE
:10123000109261001092640042EF51E0FA01649153
:101240008DEB91E0FC012491222399F030E0220FF4
:10125000331FF901E456FE4FA591B491F901E4550D
:10126000FE4F259134912FB7F8943C91632B6C93EA
:101270002FBFE7E2F2E02491FA014491FC0184914E
:10128000882341F12223C1F021502C30A8F4E22F11
:10129000F0E0E35BF64F0C94E009C309C3095C0975
:1012A0005909AB09AE09B1095C095C09B509BB096B
:1012B000BF099FB59F779FBDE82FF0E0EE0FFF1F9E
:1012C000E455FE4FA591B4918FB7F8949C91492BAA
:1012D0004C938FBFA09A80916400816080936400DA
:1012E000169A8E9AA29A8C9AA39A80916100806431
:1012F0008093610080916100806280936100159A03
:101300008F9A809164008260809364008091610074
:1013100080618093610008E211E0F801C191D191F0
:101320008F018881982F906898838F770E940E0391
:10133000FFEF29E688E1F15020408040E1F700C04E
:10134000000088818F7788830E94830291E00034B7
:10135000190719F7E0CF9FB59F7DADCF9FB5977F58
:10136000AACF95B59F7D95BDA7CF90918B009F7714
:1013700090938B00A1CF90918B009F7DF9CF90919E
:101380008B00977FF5CF93B79F7D93BF95CFE19962
:10139000FECF9FBB8EBBE09A99278DB30895262F71
:1013A000E199FECF9FBB8EBBE09A01970DB202166A
:1013B00031F02DBB0FB6F894E29AE19A0FBE089572
:1013C000EE0FFF1F0024001C0BBE0790F691E02DCE
:0613D0000994F894FFCF20
:1013D6000CFF0BFF0AFF09FF08FF07FF06FF05FFCB
:1013E60004FF03FF02FF01FF75010000000000007B
:1013F6000000000000000000160114011201100197
:101406000E010C010A010801060104010201000196
:00000001FF
