:100000000C945E010C949A0E0C946F0E0C94440E9A
:100010000C94190E0C94EE0D0C94C30D0C94980DC9
:100020000C946D0D0C947D010C94C50E0C947D0107
:100030000C947D010C947D010C947D010C947D0148
:100040000C94230D0C947D010C947D010C947D0186
:100050000C947D010C947D010C947D010C947D0128
:100060000C947D010C947D010C947D010C947D0118
:100070000C947D010C947D010C947D010C947D0108
:100080000C947D010C947D010C947D014B030000C8
:10009000000000130D0000000000000101C08000FE
:1000A000000000000000000000060000000000004A
:1000B0000000000000000000000000000000000040
:1000C0000000000000003F000000000000000000F1
:1000D0000000000000000000000000000000000020
:1000E0000000000000000000000000000000000010
:1000F00000000000000000000000000001001400EB
:100100000200140003001400030014000300140094
:10011000030014000400140004001400050014007F
:100120000600140000801F0000811F00FF00000077
:10013000FF000000FF000000FF000000FF000000C3
:10014000FF000000FF000000FF000000FF000000B3
:10015000FF000000FF000000FF000000FF000000A3
:10016000FF000000FF000000FF000000FF00000093
:10017000FF000000FF000000FF000000FF00000083
:10018000FF000000FF000000FF000000FF00000073
:10019000FF000000FF000000FF0000000000000A58
:1001A0000B0C000000000000010405060000000028
:1001B000000000000000000000000000000000003F
:1001C000000000000000000000000000000000002F
:1001D000007000740078007C008000840088008C2F
:1001E000009000940098009C00A000A400A800AC1F
:1001F00000B000B400B800BC00C000C400C800CC0F
:1002000000D000D400D800DC00E000E400E800ECFE
:1002100000F000F400F800FC000001040108010CEB
:100220000100003B00380035003200230062006509
:100230000000003A00370034003100220061006401
:100240000001020408102040800102040810204030
:1002500080081001020408102040800102010204FD
:100260000810204080048040201008040201010290
:1002700004081020408000003900360033003000B0
:10028000210020006300050505050505050502029E
:100290000202020202020707040404040404040424
:1002A000070703030303030303030701010101011C
:1002B00001010106060606060606060011241FBEF9
:1002C000CFEFD0E1DEBFCDBF11E0A0E0B1E0ECECBC
:1002D000F3E300E00BBF02C007900D92A634B10714
:1002E000D9F723E0A6E4B1E001C01D92A33BB20719
:1002F000E1F70E941E0F0C94E4190C940000E82F03
:10030000F0E0E557FC4F8085861739F06087618BF8
:1003100080918D03836080938D030895262F30E0B4
:10032000909191039078691729F090918D039C60CA
:1003300090938D033695322F222737952795822B60
:1003400080939103809392030895CF93DF9390E07D
:10035000FC01EF5BFD4F24918A579D4FFC01849176
:100360008823C9F090E0880F991FFC01EF5CFD4FD6
:10037000A591B491FC01EF5DFD4FC591D491611140
:100380000DC09FB7F8948C91209582238C9388811F
:10039000282328839FBFDF91CF910895623051F4C5
:1003A0009FB7F8943C91822F809583238C93E881AA
:1003B0002E2BEFCF8FB7F894EC912E2B2C938FBF71
:1003C000EACF3FB7F8948091680190916901A091BC
:1003D0006A01B0916B0122B706B600FE05C02F3F3F
:1003E00019F00196A11DB11D3FBFBA2FA92F982F5B
:1003F0008827BC01CD01620F711D811D911D42E056
:10040000660F771F881F991F4A95D1F70895883086
:1004100008F5E82FF0E0EE0FFF1FE85EFE4F718356
:1004200060838150873068F4E82FF0E0E65EFD4F8E
:100430000C9472182B023802460254025B026602C8
:10044000720280916A008C7F482B40936A0089B7C2
:10045000816089BF089580916A00837F440F551F92
:10046000440F551F482B40936A0089B78260F1CF33
:1004700080916A008F7C74E0440F551F7A95E1F7F4
:10048000482B40936A0089B78460E3CF80916A006B
:100490008F7366E0440F551F6A95E1F7482B409330
:1004A0006A0089B78860D5CF8AB78C7F482B4ABF4E
:1004B00089B78061CECF8AB7837F440F551F440F21
:1004C000551F482B4ABF89B78062C3CF8AB78F7C3C
:1004D00024E0440F551F2A95E1F7482B4ABF89B7FE
:1004E0008064B7CF8AB78F7396E0440F551F9A95F3
:1004F000E1F7482B4ABF89B78068ABCFFF920F93D3
:100500001F93CF93DF930E94E10120914A01309124
:100510004B01EB01C21BD30B209170013091710193
:10052000C217D30708F461C0409178015091790156
:100530004130510561F0E091A101F091A2012081CB
:100540003091A301232330916E0123134EC0709389
:100550004B0160934A010091720110917301423086
:10056000510509F419C14330510509F454C1413012
:10057000510561F480914901813009F449C0D8F1F5
:10058000833009F486C0843009F4CFC080917801AB
:1005900090917901019749F1C017D10708F073C113
:1005A000809147018F5F809347018B30F0F081E0AD
:1005B00090E0909379018093780141E050E06EE7FC
:1005C00072E080919F010E94070210926E011092CA
:1005D000490182E590E0909373018093720183E278
:1005E00090E09093710180937001DF91CF911F9102
:1005F0000F91FF900895C017D10730F481E08093E8
:100600004901C0934801C2CF84E080934901BECF25
:10061000C017D107E0F510924901809147018F5F23
:1006200080934701209148018C2F0C2E000C990BD0
:10063000821B910927FD939597FF03C091958195A2
:100640009109499794F2109279011092780182E908
:1006500090E0909373018093720182E590E0909313
:1006600071018093700110924701F0906F014F2D3E
:1006700050E06EE772E080919F010E940702809136
:10068000A30193E0F91229C080936E017FCF83E02C
:10069000BCCFC017D10718F51092790110927801DC
:1006A00082E990E0909373018093720182E590E07B
:1006B000909371018093700110924701F0906F0147
:1006C0004F2D50E06EE772E080919F010E9407027B
:1006D0008091A30133E0F316B9F280E0D5CF909179
:1006E0006F01933009F482E080936F0182E090E023
:1006F000909379018093780182E990E0909373015F
:100700008093720182E590E0909371018093700173
:1007100010927E018091470180937F0110927B01AE
:1007200010927D0110927C01C9CFC017D107A8F4A7
:10073000109279011092780182E990E09093730110
:100740008093720182E590E0909371018093700133
:100750001092470110927B0188CF82E090E0909345
:1007600079018093780182E990E0909373018093FE
:10077000720182E590E09093710180937001109274
:100780007E018091470180937F0110927B0110923E
:100790007D0110927C0169CF90917B019F5F9093C6
:1007A0007B0180917C01880FC017D107E0F0809316
:1007B0007C01983009F0F0CEE0917E01E630A9F49A
:1007C000109279011092780182E990E09093730180
:1007D0008093720182E590E09093710180937001A3
:1007E00010927B01D3CE8160E2CF83E090E09093C2
:1007F00079018093780190917C0181E08E0F809344
:100800007E01F0E0E858FE4F908780917D018927B6
:1008100080937D01BBCEC017D10728F510927901D6
:100820001092780110927B0182E990E0909373011D
:100830008093720182E590E0909371018093700142
:1008400080917D018111ACCE88E0EEE7F1E0A6E871
:10085000B1E001900D928A95E1F781E080937A01F1
:100860001092470193CE80917E01863009F4A8CF83
:1008700082E090E0909379018093780110927B015F
:1008800010927C0183CE10924701AFCE0895CF9392
:10089000DF93DC01EC91F0E0EE0FFF1FEA58FD4F13
:1008A000C591D491988111968C91982381E009F497
:1008B00080E0DF91CF910895DC011296ED91FC91DB
:1008C000139711969C911197808161110EC090959C
:1008D000982390831496ED91FC9115979081119631
:1008E0008C918095892380830895982B9083089517
:1008F00080E090E0892B29F08091A70183FD0C9482
:1009000000000895009731F160918E0370918F037C
:100910008617970709F06DC041504A30D8F4E42F8C
:10092000F0E0EB56FB4F0C9472189F04AB04B60436
:10093000C604CD04D404DB04E204E904F10480918C
:100940009303281739F02093930380918D038160DE
:1009500080938D0308959091940380EF820F292B4B
:1009600028239217B9F320939403EFCF3091940387
:1009700040E1249FC0011124832B2295207F215F19
:100980008223381739F380939403DFCF8091950346
:10099000281701F320939503D8CF80919603281749
:1009A000C9F220939603D1CF80919703281791F233
:1009B00020939703CACF80919803281759F2209368
:1009C0009803C3CF80919903281721F220939903AC
:1009D000BCCF80919A03281709F4BCCF20939A03C7
:1009E000B4CF80919B03281709F4B4CF20939B03C5
:1009F000ACCF309190033F773817190609F0AACF92
:100A00004230A1F018F4413031F008954330D1F074
:100A1000443049F1089580919C03281709F49ACF36
:100A200020939C0380918D03826092CF90919D03CF
:100A300080EF820F292B2823921709F48BCF209364
:100A40009D03F0CF30919D0340E1249FC00111240C
:100A5000832B2295207F215F8223381709F47ACFD8
:100A600080939D03DFCF80919E03281709F472CFF6
:100A700020939E03D7CF0F93009721F160918E03AF
:100A800070918F038617970729F5822F90E0309198
:100A900091033078231729F020918D03246020934F
:100AA0008D030D3189F00F3779F00F3081F49C01FF
:100AB0003695322F22273795279580919103822BE7
:100AC000809391030F91089540939103F0CF10927A
:100AD0009103EDCF309190033F773817190691F7C6
:100AE000822F90E0309192033078231729F02091E3
:100AF0008D03286020938D039695982F88279795CE
:100B00008795482B40939203DDCF81508C3038F588
:100B1000E82FF0E0E257FA4F0C9472189A05A005FE
:100B2000A205A405A605A805AA05B005B405B60545
:100B3000B805BC05809165008E7F8093650008959F
:100B40001E98089596980895AA98089594980895DF
:100B5000AB980895809162008F7B80936200089526
:100B6000809162008F7DF9CF1D9808959798089520
:100B7000809165008D7FE1CF809162008F7EEDCF07
:100B80001F93CF93DF93EC018A819B8110E0892B27
:100B9000E9F48D819E8110E0892B69F588818E7F33
:100BA0008883DF91CF911F910895812F90E0880F66
:100BB000991FEA81FB81E80FF91F0190F081E02D78
:100BC00080818F7780830E9485051F5F8981181738
:100BD00060F3DFCF812F90E0880F991FED81FE81B8
:100BE000E80FF91F0190F081E02D80818F778083DD
:100BF0000E9485051F5F8C81181760F3CFCFFC0121
:100C000090819570953019F4CF010C94C00508952A
:100C1000FC01208120FF03C022FF0C94C005089531
:100C200081508C3038F5E82FF0E0E75EF94F0C94F6
:100C3000721825062B062D062F06310633063506BB
:100C40003B063F06410643064706809165008160EA
:100C50008093650008951E9A0895969A0895AA9A19
:100C60000895949A0895AB9A0895809162008064E3
:100C7000809362000895809162008062F9CF1D9A8E
:100C80000895979A0895809165008260E1CF8091E0
:100C900062008061EDCF90918D03882361F09061B7
:100CA00090938D0381E00E94100680918A00887FD6
:100CB00080938A0008959F7E90938D0381E00E9427
:100CC0008505109288001092890080918A008460C6
:100CD000EFCFCF93C82F809190018C1719F08C2FF4
:100CE0000E944B06C0939001CC23F9F02FB7F894E3
:100CF0008091740190917501A0917601B091770176
:100D00002FBF482F392F2A2F8B2F409391013093DB
:100D100092012093930180939401809190018C170C
:100D200049F08C2FCF910C944B0640E030E020E04E
:100D300080E0EBCFCF9108950F931F93CF938C0159
:100D4000C0E0F8018181C81720F0CF911F910F9169
:100D500008958C2F90E0880F991FD8011296ED917D
:100D6000FC91E80FF91F0190F081E02D8081982F10
:100D7000906890838F770E941006CF5FE2CF1F9319
:100D8000CF93DF93EC01288120FD15C022FF13C013
:100D9000322F3160388321FF09C02A813B81232B08
:100DA00051F0DF91CF911F910C949C062D813E81D3
:100DB00010E0232BB9F4DF91CF911F910895812F7B
:100DC00090E0880F991FED81FE81E80FF91F0190D7
:100DD000F081E02D8081982F906890838F770E941A
:100DE00010061F5F8C81181750F3E5CFCF93DF9368
:100DF000EC018881982F9270691789F0662369F059
:100E000082608883888180FF0AC0CE010E94FF052E
:100E1000CE01DF91CF910C94BF068D7FF2CFDF9191
:100E2000CF9108951F93CF93DF93EC012881322F48
:100E3000357099F4322F3160388321FF09C02A813F
:100E40003B81232B51F0DF91CF911F910C949C0695
:100E50002D813E8110E0232BB9F4DF91CF911F91BA
:100E60000895812F90E0880F991FED81FE81E80F92
:100E7000F91F0190F081E02D8081982F9068908378
:100E80008F770E9410061F5F8C81181750F3E5CFF3
:100E9000CF93DF93EC018881982F9270691789F0C6
:100EA000662369F082608883888180FF0AC0CE0152
:100EB0000E940806CE01DF91CF910C9412078D7F1E
:100EC000F2CFDF91CF910895A89A8FE79EE3019723
:100ED000F1F700C00000A89808950C9464071F93D0
:100EE000CF93DF93EC0180918D0384FF0BC08FE0E3
:100EF00090E00E943818182F80E190E00E94381886
:100F0000181306C0CE01DF91CF911F910C943818B1
:100F1000FFCF0C946F07CF93DF932091A401309102
:100F2000A5012F3F320721F0C901DF91CF9108952C
:100F30008091A70187FF2BC086FF0FC089E090E05A
:100F40000E948907C82F81E090E00E9489079C2FAA
:100F50009093A5018093A40115C089E090E00E94C0
:100F60008907C82F81E090E00E94890790E4C99F1B
:100F700090011124207C31708F73282B3093A501B0
:100F80002093A4018091A4019091A501CECF85FF6B
:100F90000CC081E190E00E948907C82F82E190E0B7
:100FA0000E948907C05CDD0BD2CF81E090E00E94F7
:100FB000890790E0CDCFCF93863823E0920719F1CF
:100FC00038F4813823E09207D9F0CF910C94381887
:100FD000873823E09207D1F0883823E09207A9F7F9
:100FE00086E893E00E943818C82F87E893E00E94B3
:100FF000381890E02FEFC29F800D911D1124E5CF8E
:1010000081E893E0E2CF86E893E0DFCF87E893E0E2
:10101000DCCF0E946906EEE8F1E081E0878310866C
:10102000E7E9F1E088E0DF011D928A95E9F708958C
:101030000F931F93CF93DF93EC01162FC63883E0F5
:10104000D80781F150F4C13883E0D807F9F0612F57
:10105000CE010E944018CE011FC0C73883E0D807D8
:1010600041F1C83883E0D80791F786E893E00E9401
:101070003818082F87E893E00E943818C82FD0E06E
:101080008FEF089FC00DD11D1124E1CF81E893E0BF
:101090000E94401881E893E0DF91CF911F910F915A
:1010A0000C94381886E893E00E94401886E893E094
:1010B000F3CF87E893E00E94401887E893E0ECCFF5
:1010C000CF93DF93D0E0C0E0FE01E457FF4F64917F
:1010D000CE010E9440182196C03181E0D807A1F7C7
:1010E00061E081E893E00E944018C0E0CF5F8C2F60
:1010F0000E941006CC30D1F7DF91CF9108950C9467
:1011000060081F93CF93DF93EC01162F089779F4B3
:10111000662319F10E94600880E090E0892BB9F005
:10112000612FCE01DF91CF911F910C94000080E0E0
:1011300090E0892BA9F781E0C11590E1D90708F06B
:1011400080E0111105C0DF91CF911F91089581E0DA
:1011500027972297C0F780E0F6CF80E090E0892BB8
:10116000F9F681E0F0CF0F931F93CF93DF93EC015B
:10117000162F80918D0384FF25C0CF30D10561F4F7
:101180008FE090E00E9440188FE090E0DF91CF91D7
:101190001F910F910C9438188FE090E00E9438183E
:1011A000082F80E190E00E94381808130AC0C73069
:1011B000D10531F0C830D10529F4183049F0FFCFFE
:1011C000FFCFFFCF612FCE010E944018CE01DECFAE
:1011D0000E94600888E0DF91CF911F910F910895E0
:1011E0008331910588F48131910530F48130910586
:1011F00019F08930910531F42FEF3FEF3093A501BD
:101200002093A4010C94B3088D319105D9F7677F21
:101210006093A70120918E012F73362F307C232BF2
:1012200020938E01E9CFBF92CF92DF92EF92FF928F
:101230000F931F93CF93DF938B01B42E690182FF2D
:1012400023C083FF17C061E0C8010E948108882382
:10125000D9F16B2DC8010E94F0088B1135C0F60141
:10126000DF91CF911F910F91FF90EF90DF90CF9082
:10127000BF90099460E0C8010E948108882321F191
:10128000C8010E948907E9CF842F8770C1E0D0E0B0
:101290007E0101C0EE0C8A95EAF7D42FD870CB01FD
:1012A0000E948907C82FB4FE1CC061E0C8010E94DB
:1012B0008108882349F0DD2389F0CE296C2FC801ED
:1012C0000E94F0088C1759F2DF91CF911F910F9176
:1012D000FF90EF90DF90CF90BF900895E094CE21E3
:1012E000EDCF60E0C8010E948108882369F3CE2118
:1012F000DD2319F0C111B3CFE7CFCC2309F4AFCF71
:10130000E3CFAF92BF92DF92EF92FF920F931F93C2
:10131000CF93DF937C01162FC42FD22ED42FD07EF3
:1013200080918E0187FF2CC0D03EC1F5A0908F0127
:10133000AA20A1F1B12CC5010E948907D82FC501AF
:1013400001960E948907982F8D2FE816F90631F52E
:101350006C2F70E0762F6627662773706D296F5F9C
:101360007F4F28E734E0402F8C2FDF91CF911F91E2
:101370000F91FF90EF90DF90BF90AF900C94130906
:1013800080FD33C0D03609F464C090F4D03209F443
:1013900049C0D03409F45DC0DD2381F1DF91CF91E4
:1013A0001F910F91FF90EF90DF90BF90AF90089545
:1013B000D03A09F484C090F42C2F2F7141E0D0383A
:1013C00069F7612FC701DF91CF911F910F91FF90B6
:1013D000EF90DF90BF90AF900C948204D03C09F462
:1013E00075C0D03E09F4B4CFD9CF0E948B078E15BB
:1013F0009F0541F2E114F10429F2D0CF8C2F8E70B9
:1014000069F680E090E0892B49F28C2F8170DF91A2
:10141000CF911F910F91FF90EF90DF90BF90AF9011
:101420000C940000CF71CF3109F0B8CF4D2D4F771C
:1014300061F0413061F02D2D221F2227221F0DE186
:10144000612FC7010E943B05A9CF41E0F4CF40E0E6
:10145000F2CF2C2F30E08C2F8F71813029F030F0BB
:10146000803121F0813109F540E001C041E095E093
:10147000359527959A95E1F721700DE1612FC70108
:101480000E943B0580E090E0892B09F487CF4C2F28
:10149000612FC701DF91CF911F910F91FF90EF90C6
:1014A000DF90BF90AF900C940000C901880F991F86
:1014B0008E71C4FB442740F9482B4250D8CF2C2FC3
:1014C0002F7043E0C4FF7DCF42E07BCFCF71CE31A0
:1014D00031F0CF3109F062CF2D2D45E072CF2D2DA7
:1014E00044E06FCF4F925F926F927F928F929F9264
:1014F000AF92BF92CF92DF92EF92FF920F931F9322
:10150000CF93DF93C0916C01D0916D0180915F0109
:10151000811116C02FB7F8948091740190917501D4
:10152000A0917601B09177012FBF80935B019093DA
:101530005C01A0935D01B0935E0181E080935F0147
:1015400080915301811111C00E94E1016051710924
:101550008109910960934F0170935001809351016B
:101560009093520181E0809353010E94E1012B018D
:101570003C018FB7F894C0907401D0907501E09051
:101580007601F09077018FBF80915B01BC2CB81A77
:1015900080914F01909150019201281B390BC90194
:1015A00020914E01211169C0FE0130E020E045810B
:1015B0005681C417D50709F056C045E0429F800107
:1015C000439F100D11240E5F1F4F0C0F1D1F109312
:1015D0004D0100934C010115110509F458C0F801A3
:1015E000148213828031910508F492C1853F9140A5
:1015F00008F0B4C18D8D9E8D0E944704F801808350
:1016000081E080934E0140924F01509250016092D0
:10161000510170925201F6E0FB1508F47DC18D8DE9
:101620009E8D0E944704A0904C01B0904D01909176
:101630004E01E92FE695E695E695292F277041E0C2
:1016400050E060E070E004C0440F551F661F771F34
:101650002A95D2F7EA0DFB2DF11D811129C0409585
:101660008081482327C02F5F3F4F359625303105B5
:1016700009F09DCF10E000E0AACF26E02B1508F47A
:101680004BC18031910518F0853F914040F2DF91C8
:10169000CF911F910F91FF90EF90DF90CF90BF906F
:1016A000AF909F908F907F906F905F904F90089534
:1016B0008081482B408381E0890F80934E014092C6
:1016C0004F01509250016092510170925201982F37
:1016D0009770E9F68031E9F4F5018081873780F46D
:1016E000EB8DFC8D309721F4BC8EAB8E07C0FC01D6
:1016F000838194810097D9F7B482A38210924E011E
:10170000C0925B01D0925C01E0925D01F0925E01BB
:10171000BECF8831A9F7F50111811F778DEF782EA3
:10172000710EF7E2F71580F088818130A1F4812EE7
:10173000912C1D3220F51B3228F4112351F121E0A8
:10174000271508F18DE026C085ED810F883250F411
:101750008881823061F3E0914C01F0914D01D48396
:10176000C383CCCF8DEA810F883220F48881833007
:1017700091F7DDCF8EEF810F8230C8F6ECCF8DEA86
:10178000810F8230F8F2C4018F579C4F0E94DB0713
:1017900001C08881F501028190819B3739F19F3723
:1017A00009F46CC09737B9F60813D5CF61E08D8D79
:1017B0009E8D0E945C048D8D9E8D0E94120F8FE67F
:1017C00097E10197F1F700C00000AD8DBE8D149632
:1017D000ED91FC911597808111969C91892B8083C6
:1017E00060E08D8D9E8D0E945C04B5CF202F287007
:1017F000302F377004FF35C01D3278F51B3208F0EA
:10180000AACF91E0971508F0A6CF41E050E060E044
:1018100070E004C0440F551F661F771F3A95D2F73A
:10182000182F142B211103C0142F10951823612F8A
:10183000C4018F579C4F0E94180818138CCF61E089
:101840008D8D9E8D0E945C048D8D9E8D0E94120F49
:10185000EFE6F7E13197F1F7B6CF13551230A8F65E
:101860007ACF90E002C0959587953A95E2F781701E
:1018700099272817190609F06ECF98CF1B32D9F196
:1018800090F51330C1F1143009F465CF602FC40115
:101890008F579C4F0E94180808131FC061E08D8D60
:1018A0009E8D0E945C048D8D9E8D0E94120F8FE68E
:1018B00097E10197F1F700C00000AD8DBE8D149641
:1018C000ED91FC911597808111969C91892B8083D5
:1018D00060E08D8D9E8D0E945C0411113CCF043020
:1018E00078F4088338CF133531F0143509F433CF49
:1018F0001C3261F630CF083081F70E9460089FCF1C
:1019000061E081E893E00E94180881E0888323CF9A
:10191000F6E0FB1508F0BBCE99E09B1508F0B7CEBA
:10192000C0925B01D0925C01E0925D01F0925E0199
:1019300000914C0110914D018D8D9E8D0E944704A8
:10194000F801808381E080934E0140924F015092D4
:101950005001609251017092520199CE26E02B15F0
:10196000D8F295CE9F92AF92BF92CF92DF92EF9234
:10197000FF920F931F93CF93DF937C016B01942E03
:1019800081E0F701481328C0A280B380E7012196C7
:10199000A114B10431F562E070E081E090E00E94B2
:1019A0008F188C01009731F0FC01D182C0828881B0
:1019B0008F5F8883F1E09F1242C0F7011383028397
:1019C000DF91CF911F910F91FF90EF90DF90CF901B
:1019D000BF90AF909F900895A580B680E7012496B0
:1019E000D7CF88818F5F8883C82FD0E062E070E016
:1019F000CE010E948F188C0120E0AE0141505109A8
:101A0000822F90E08417950764F0C150D048CC0F26
:101A1000DD1FC00FD11FD982C882C5010E9447199E
:101A2000C9CF880F991FF501E80FF91F60817181F7
:101A3000800F911FFC01718360832F5FE1CFF7015D
:101A400016830583BDCF1F920F920FB60F921124FC
:101A50002F933F938F939F93AF93BF938091740184
:101A600090917501A0917601B09177013091670155
:101A700023E0230F2D3768F126E8230F0296A11DDE
:101A8000B11D209367018093740190937501A09319
:101A90007601B09377018091680190916901A091DE
:101AA0006A01B0916B010196A11DB11D809368017F
:101AB00090936901A0936A01B0936B01BF91AF91BC
:101AC0009F918F913F912F910F900FBE0F901F907C
:101AD00018950196A11DB11DD4CF1F920F920FB67C
:101AE0000F9211240BB60F922F933F934F935F9356
:101AF0006F937F938F939F93AF93BF93EF93FF93D6
:101B0000E0912601F09127010995FF91EF91BF9196
:101B1000AF919F918F917F916F915F914F913F9185
:101B20002F910F900BBE0F900FBE0F901F90189526
:101B30001F920F920FB60F9211240BB60F922F9394
:101B40003F934F935F936F937F938F939F93AF9345
:101B5000BF93EF93FF93E0912401F0912501099544
:101B6000FF91EF91BF91AF919F918F917F916F9175
:101B70005F914F913F912F910F900BBE0F900FBE31
:101B80000F901F9018951F920F920FB60F9211246D
:101B90000BB60F922F933F934F935F936F937F9367
:101BA0008F939F93AF93BF93EF93FF93E0912201A5
:101BB000F09123010995FF91EF91BF91AF919F9112
:101BC0008F917F916F915F914F913F912F910F90E6
:101BD0000BBE0F900FBE0F901F9018951F920F9283
:101BE0000FB60F9211240BB60F922F933F934F9382
:101BF0005F936F937F938F939F93AF93BF93EF9375
:101C0000FF93E0912001F09121010995FF91EF915F
:101C1000BF91AF919F918F917F916F915F914F9104
:101C20003F912F910F900BBE0F900FBE0F901F9002
:101C300018951F920F920FB60F9211240BB60F92A8
:101C40002F933F934F935F936F937F938F939F93C4
:101C5000AF93BF93EF93FF93E0911E01F0911F01AB
:101C60000995FF91EF91BF91AF919F918F917F91D6
:101C70006F915F914F913F912F910F900BBE0F90FD
:101C80000FBE0F901F9018951F920F920FB60F92D4
:101C900011240BB60F922F933F934F935F936F9343
:101CA0007F938F939F93AF93BF93EF93FF93E091B5
:101CB0001C01F0911D010995FF91EF91BF91AF912A
:101CC0009F918F917F916F915F914F913F912F9154
:101CD0000F900BBE0F900FBE0F901F9018951F9284
:101CE0000F920FB60F9211240BB60F922F933F93C2
:101CF0004F935F936F937F938F939F93AF93BF9314
:101D0000EF93FF93E0911A01F0911B010995FF9168
:101D1000EF91BF91AF919F918F917F916F915F9163
:101D20004F913F912F910F900BBE0F900FBE0F90D0
:101D30001F9018951F920F920FB60F9211240BB699
:101D40000F922F933F934F935F936F937F938F9354
:101D50009F93AF93BF93EF93FF93E0911801F0919E
:101D600019010995FF91EF91BF91AF919F918F91CB
:101D70007F916F915F914F913F912F910F900BBE8B
:101D80000F900FBE0F901F9018951F920F920FB6D5
:101D90000F9211240BB60F922F933F934F935F93A3
:101DA0006F937F938F939F93AF93BF93CF93DF9363
:101DB000EF93FF937894CEE2D1E0E991F99180819D
:101DC00087FF08C08F77209146019181921720F1FB
:101DD0000E94100681E0C634D80779F786E984BDF1
:101DE000809146018F5F8032D1F080934601FF9150
:101DF000EF91DF91CF91BF91AF919F918F917F91A3
:101E00006F915F914F913F912F910F900BBE0F906B
:101E10000FBE0F901F9018950E948505DBCF109282
:101E20004601E5CFDC011496ED91FC911597908168
:101E300011968C918095892380830895CF93DF93A9
:101E400000D01F92CDB7DEB7789483B78C6483BF80
:101E500087B7816087BF82E08EBD8EB581608EBD01
:101E60008FB581608FBD85B5846085BD85B5806483
:101E700085BD80918A00836080938A0080918B0069
:101E8000816080938B0087E886B91AB80FB6F89402
:101E9000A89581B5886181BD11BC0FBE1ABA17BA69
:101EA00014BA11BA12B8109261001092640061E085
:101EB00081E00E94A501EDE9F1E09491E2E4F2E015
:101EC0002491E7E8F2E08491882341F19923C1F05D
:101ED00091509C30A8F4E92FF0E0EF58F04F0C94AB
:101EE000721818121812800F7D0F001203120612BA
:101EF000800F800F0A12101214129FB59F779FBD9A
:101F0000E82FF0E0EE0FFF1FEF5DFD4FA591B491BC
:101F10008FB7F894EC912E2B2C938FBFA09A8091C1
:101F20006400816080936400169A8E9AA29A8C9ABB
:101F3000A39A809161008064809361008091610028
:101F4000806280936100159A8F9A8091640082600C
:101F5000809364008091610080618093610014BC73
:101F600015BC85B5887F85BD87B7806487BF85B57B
:101F7000836085BDF1EDCF2EF1E0DF2EAEE2EA2EDB
:101F8000A1E0FA2EB6E4AB2EB1E0BB2E17E0912E05
:101F9000F60105911491C8010E9438188983C8017F
:101FA00001960E9438188A830E5F1F4FC8010E9455
:101FB0003818803228F06FE1C8010E9451188FE173
:101FC000D7010D911D917D01F8018183FA81F038CF
:101FD00009F432C2F13809F438C2F11113C0398161
:101FE000399D9001112428553E4F3B832A8341E0BF
:101FF000B801C9010E94B20C40E0B8018A819B81FE
:102000000E94B20C82E0C80ED11CAE14BF0409F0CD
:10201000BFCF85E190E00E94381880FF05C0909105
:10202000AF0194609093AF0181FF05C09091B6011C
:1020300094609093B60182FF05C09091BD019460B9
:102040009093BD0183FF05C09091C401946090936B
:10205000C40184FF05C09091CB0194609093CB01A3
:1020600085FF05C09091D20194609093D20186FFC4
:1020700005C09091D90194609093D90187FF05C064
:102080008091E00184608093E00186E190E00E940D
:10209000381880FF05C09091A80194609093A80122
:1020A00082FF05C09091E70194609093E70183FF60
:1020B00005C09091EE0194609093EE0184FF05C0FD
:1020C0009091F50194609093F50185FF05C0909182
:1020D000FC0194609093FC0186FF05C0909103027F
:1020E00094609093030287FF05C080910A02846088
:1020F00080930A028DE190E00E94381880938B0350
:102100008CE190E00E94381880938C038DE190E080
:102110000E94381885FF9FC181E190E00E94381825
:102120008F73A82FB0E0FA2FEE27FB83EA8382E1BA
:1021300090E00E9438182A813B81282B3B832A8318
:102140008A819B8190938F0380938E0383E190E03B
:102150000E9438188093900380E8809391038093C5
:1021600092038FE190E00E94AB189B838A8385E104
:10217000AA81BB8111968C9386E090E00E94AB18F7
:10218000DC01EEE5F2E0E4911196EC931197E3EABD
:10219000F2E024912C9330E0220F331FF901EF5C21
:1021A000FD4F8591949113969C938E931297F9010C
:1021B000EF5DFD4F8591949115969C938E931497A6
:1021C000EA81FB81B68FA58FF093AE03E093AD0358
:1021D00081E893E00E94DB07AA81BB818C93843065
:1021E00048F061E081E893E00E94180881E0EA810C
:1021F000FB8180832A813B8130936D0120936C01A8
:10220000D90111968C918F3FA1F060E00E94A50149
:10221000EA81FB8181819CEF980F943020F08251FC
:10222000843008F08FEF42E050E062E77AE00E94ED
:10223000070260E0AA81BB815D968D919C910E940E
:102240005C042A813B81F901368325833387228709
:10225000308B2787358B248B328F218F148E138EF2
:1022600082E080939F0184E18093A001EAE9F2E09B
:10227000E491F0E0EE0FFF1FEA58FD4F8591949135
:102280009093A2018093A101E5E5F2E0E491E0934F
:10229000A30160E084E10E94A501E8E7F1E086E1A6
:1022A000DF011D928A95E9F782E990E0909373012E
:1022B0008093720182E590E09093710180937001A8
:1022C00010928E0110928F018FEF9FEF9093A501D6
:1022D0008093A4011092A60183E080936F01809106
:1022E000A30180936E0143E050E06EE772E08091BD
:1022F0009F010E9407028DE190E00E948907682FEC
:102300006F738DE190E00E94F0088093A70163E174
:1023100087E090E00E94F0086DE088E090E00E9485
:10232000F00880E00E94090885B7837E85BF85B7E5
:10233000806285BFB1E0B98320E0C22E20E0D22EBA
:1023400030E0432E30E0532E40E0642E40E0742E07
:1023500050E0E52E50E0F52E60E0A62E60E0B62EAF
:10236000E091AD03F091AE03FB83EA83038CF48D1F
:10237000E02D309709F080C0F981F13009F0C0C03C
:10238000809190018823F1F02FB7F8948091740127
:1023900090917501A0917601B09177012FBF409186
:1023A0009101509192016091930170919401841B6D
:1023B000950BA60BB70B4597A105B10518F080E06A
:1023C0000E94090880917A01882309F499C0F89441
:1023D00088E0E6E8F1E0A5EAB3E001900D928A9585
:1023E000E1F710927A0178948091A503E82FF0E04C
:1023F000E955FC4F863008F0C4C211928F5FFACFC6
:102400009FB59F7D7CCD9FB5977F79CD95B59F7DFD
:1024100095BD76CD90918B009F7790938B0070CD7A
:1024200090918B009F7DF9CF90918B00977FF5CF96
:1024300093B79F7D93BF64CD4981499DC00111240D
:1024400040E0B80188559E4FDBCD5981599DC001B0
:10245000112441E0F6CF81E090E00E943818181670
:1024600034F063E081E090E00E94401883E0482F60
:1024700050E05B834A8364CE20E030E0232B21F0E0
:10248000618180810E940000AA81BB815B96ED91F1
:10249000FC918081813409F4C7C108F022C18A32DD
:1024A00009F41FC208F0FBC0843209F42AC188F481
:1024B000813209F4CEC1833209F4D4C1811114C030
:1024C000A0E0B0E0AB2B09F42CC181810E94000098
:1024D00028C1863209F4D7C108F4E6C1883209F46C
:1024E000F0C1893209F4F6C183819481AA81BB814C
:1024F000B483A3835C969C938E935B97BAE0B98375
:1025000080918D0382FF20C088EA91E09B838A83BB
:1025100015E46091910380918B0380FF91C46095D5
:10252000661F6627661F8A819B810E94480711509B
:10253000AA81BB811796BB83AA831111EACF809130
:102540008D038B7F80938D0380918D0383FF21C04A
:10255000E8EAF1E0FB83EA8315E46091920380915D
:10256000900387FF6FC46095661F6627661F8A8188
:102570009B810E94F60611502A813B81295F3F4FC3
:102580003B832A831111E9CF80918D03877F80934C
:102590008D0380918D0380FF3EC00BE813E028EF90
:1025A000822E912C37E0332E911067C480919303D3
:1025B00084FF4AC488EA91E00E9412078091930345
:1025C00080FF47C48FEA91E00E9412078091930335
:1025D00081FF44C486EB91E00E941207809193032F
:1025E00082FF41C48DEB91E00E941207809193031A
:1025F00083FF3EC484EC91E00E94120793940F5F26
:102600001F4FF8E08F0E29E09212CECF80918D03FC
:102610008E7F80938D0380918D0381FF3EC00BE8F8
:1026200013E088EF882E912C97E0392E9110AFC4DB
:1026300080919C0384FF92C488EA91E00E94BF06C7
:1026400080919C0380FF8FC48FEA91E00E94BF06B7
:1026500080919C0381FF8CC486EB91E00E94BF06B1
:1026600080919C0382FF89C48DEB91E00E94BF069C
:1026700080919C0383FF86C484EC91E00E94BF0696
:1026800093940F5F1F4FF8E08F0E29E09212CECF88
:1026900080918D03877F80938D03889561CE8E32E4
:1026A00009F434C158F48C3209F429C108F420C16A
:1026B000E114F104B1F1618185E009C1803309F4CD
:1026C00033C108F42AC1813309F437C1803409F0D9
:1026D0000BCFC114D10429F1618180E00E94000078
:1026E00020C0823609F469C068F5813509F4DCC080
:1026F00088F4833409F4A6C008F49DC0803509F03D
:10270000F3CE818160E087FF02C061E080580E94C3
:102710008E0107C08E3509F417C160F4823509F0C7
:10272000E3CEAA81BB815B96ED91FC915C9783819E
:102730009481DECE8036E1F1813609F0D5CE61811B
:1027400081E038C0873609F444C058F48436D9F1A2
:10275000B8F18536D9F1863609F0C6CE618186E0BA
:1027600029C08C3609F404C130F4883609F0BCCE97
:10277000618188E01FC08D3679F18E3609F0B4CEC4
:10278000A381B481109709F455C38C918F3649F613
:102790004114510431F22181622F661F6627661FA2
:1027A00011968C91B0E88B9FC0011124822B39C007
:1027B000618180E00E947F01B4CF618182E0FACF25
:1027C000618183E0F7CF618184E0F4CF618185E0AE
:1027D000F1CF618187E0EECF6181862F8F77411441
:1027E000510409F49ECF81111AC010E000E067FD8A
:1027F0000BC00F5F1F4F0038110509F492CF60E046
:10280000C8010E940000F5CF0F5F1F4F003811056F
:1028100009F487CF61E0C8010E940000F5CF60781D
:1028200090E00E9400007DCFC114D10409F479CF5B
:10283000618181E053CFC114D10409F472CF618169
:1028400082E04CCFC114D10409F46BCF618183E0E5
:1028500045CF20E030E0232B09F463CF81810E9433
:1028600000005FCF40E050E0452B09F45ACF818152
:1028700087FD03C00E94000054CF819590E09195A0
:1028800081959109F7CF80E090E0892B09F449CF39
:10289000818187FD03C00E94000043CF819590E0B5
:1028A000919581959109F7CF6114710409F439CF9D
:1028B000818160E087FF02C061E080580E940000D3
:1028C00030CFE114F10409F42CCF618180E00E9443
:1028D000000027CFE114F10409F423CF618181E0E6
:1028E000F6CFE114F10409F41CCF618182E0EFCF4F
:1028F000E114F10409F415CF618183E0E8CFE1141C
:10290000F10409F40ECF618184E0E1CFE114F10418
:1029100009F407CF618186E0DACFE114F10409F40C
:1029200000CF618187E0D3CFA114B10409F4F9CEBF
:10293000618181E00E940000F4CEA114B10409F489
:10294000F0CE618182E0F6CFA381B481109709F4C3
:1029500074C28C918F3509F0E4CE20E030E0232B57
:1029600009F4DFCE11969C9181810E940000D9CE9E
:1029700040E050E0452B09F4D4CE81810E94000054
:10298000D0CEE0E0F0E0EF2B21F085EA93E00E946A
:1029900000008091A703811117C09091A8039111A5
:1029A00013C080E090E0892B19F080E00E940000C5
:1029B00080919001882321F081E00E946906A0CDDA
:1029C00081E00E9409089CCD90919001992309F41F
:1029D00095C08057803108F08EC081E00E94690662
:1029E000F091A503FA8380919701F8130AC04F2F45
:1029F00050E069E971E087EA93E00E94D019892BE1
:102A000061F01092960188E0E5EAF3E0A7E9B1E011
:102A100001900D928A95E1F773CD809196018F5FB9
:102A2000809396012A81233009F04CC09091A7032E
:102A3000892F87701091A803853029F41093950190
:102A40000E9464075DCD843059F1282F30E0843036
:102A500010F5409195014423F1F0A42FA150BB0B38
:102A6000AA0FBB1FAA0FBB1FA20FB31F1196BB83D8
:102A7000AA8393FF1AC061E08A819B810E9481082A
:102A8000882309F43DCD612F8A819B810E94F00843
:102A9000181336CDD5CFF9013196FB83EA83E9CF00
:102AA0002DE130E03B832A83E4CF60E08A819B8183
:102AB0000E948108882309F423CD8A819B810E948A
:102AC0008907E6CF3A81343009F01ACD8091A70307
:102AD000682F70E0762F6627662773709091A803A1
:102AE000692B6F5F7F4F2DE637E04091A9038C7013
:102AF0000E94130905CD80E00E940908E091A70318
:102B0000EF3F61F48091A8038111FACC80E090E05E
:102B1000892B09F4F5CC0E940000F2CCE7FD0CC033
:102B20000091AA032091A9034091A80360E08E2F91
:102B300090E00E948109E4CCE03C08F06BC19091E8
:102B40008E0197FFDDCC8091A803282F30E0A901EA
:102B500040955095440F551F440F551F407C5170B0
:102B6000EF734E2B5B834A8335952795522F537015
:102B7000352E2091A503253069F58C788C3051F5E0
:102B80000E948B07AA81BB818A179B0721F0AF3F68
:102B9000B14009F0B5CCF091A8032F2F30E0522FAF
:102BA0004427442753708091A903480F511D4F5F5C
:102BB0005F4F5B834A831091AA0361E0CA010E94C0
:102BC0008108612F882309F49BCC8A819B810E9414
:102BD000F00896CC8A809B8051E0851A9108880C79
:102BE000991C880C991C832884010F5F1F4F8091CA
:102BF000A6018823F9F096FF41C0C80160E071E0AA
:102C00000E945E18682F81E090E00E94F008C801E1
:102C100017FF02C081509F4F692F89E090E00E940A
:102C2000F00880E090E0892B19F0C8010E940000B4
:102C30001092A60180918E0180FD3CC08091A50379
:102C4000843009F052C08091A8038978813009F05E
:102C500057CC6091A90380E090E0892B19F0C8015E
:102C60000E94000080E090E0892B09F449CC40915B
:102C7000A903632DC8010E94000042CC6A817B81B8
:102C80006F73772781E090E00E94F0086A817B8172
:102C9000E6E075956795EA95E1F789E090E00E9496
:102CA000F00880E090E0892B19F28A819B810E94D4
:102CB0000000BECF86FF0CC00E948B0780179107D3
:102CC00009F4BCCF0D3F87E018070CF0B7CF18CC44
:102CD0000E948B07AA81BB818A179B0709F4AECF9C
:102CE000AF3FB14009F4AACF0BCC833079F54091C6
:102CF000A803F42FF1708F2E43FB992490F880E005
:102D000090E0892B39F04770292D6A817B81C801B9
:102D10000E94000080918E0186FF0BC080E090E051
:102D2000892B09F4EDCB492D682DC8010E940000C4
:102D3000E7CB80E090E0892B09F4E2CB292D482DE8
:102D4000632D8A819B810E940000DACB863009F0D6
:102D5000D7CB8091A803982F9978913021F08F7864
:102D6000803809F0CDCB80918E0186FF2BC00E9468
:102D70008B078017910711F58091A90390E0382FF8
:102D80002227222733704091AA03A42FA20FB32F2A
:102D9000B11D1196BB83AA831091AB0395958795BE
:102DA000959587958370992782309105B1F00397A7
:102DB00009F0A6CB61E08A819B8101CF0D3F1740CE
:102DC000DCF69ECB0E948B07EA81FB818E179F0762
:102DD00099F2EF3FF14081F293CB14FF91CB61E088
:102DE0008A819B810E948108882309F489CB8A818A
:102DF0009B810E948907912F977061E070E001C06C
:102E0000660F9A95EAF713FF02C0682BDECE609535
:102E10006823DBCEE83E08F073CBE05CFF0B8091CB
:102E2000A8030091AB032091AA034091A90361E09C
:102E30009E2F7FCE3AE0398363CB4AE0498360CB53
:102E4000607871CB607893CB88EA91E00E940806A5
:102E5000B5CB8FEA91E00E940806B8CB86EB91E0F3
:102E60000E940806BBCB8DEB91E00E940806BECB0A
:102E700084EC91E00E940806C1CB882D90E0059675
:102E8000389EA001399E500D11245B834A83CA01EC
:102E900088559E4FD80118962C9120FF4AC00E9459
:102EA00012078A819B8181559E4FF801208521FF61
:102EB00043C00E9412078A819B818A549E4FD80189
:102EC00018962C9122FF3BC00E9412078A819B8199
:102ED00083549E4FF801208523FF34C00E941207BF
:102EE0008A819B818C539E4FD80118962C9124FF88
:102EF0002CC00E9412078A819B8185539E4FF80146
:102F0000208525FF25C00E9412078A819B818E5251
:102F10009E4FD80118962C9126FF1DC00E941207C3
:102F20008A819B8187529E4FF801208527FFA2CF7F
:102F300063CB0E940806B5CF0E940806BCCF0E9452
:102F40000806C4CF0E940806CBCF0E940806D3CF44
:102F50000E940806DACF0E940806E2CF88EA91E0D4
:102F60000E94FF056DCB8FEA91E00E94FF0570CBB8
:102F700086EB91E00E94FF0573CB8DEB91E00E9400
:102F8000FF0576CB84EC91E00E94FF0579CB882D7C
:102F900090E00596389EA001399E500D11245B8368
:102FA0004A83CA0188559E4FD80151962C9120FF23
:102FB0004AC00E94BF068A819B8181559E4FF801BD
:102FC000218921FF43C00E94BF068A819B818A54C8
:102FD0009E4FD80151962C9122FF3BC00E94BF0604
:102FE0008A819B8183549E4FF801218923FF34C03D
:102FF0000E94BF068A819B818C539E4FD8015196B7
:103000002C9124FF2CC00E94BF068A819B8185538E
:103010009E4FF801218925FF25C00E94BF068A81A5
:103020009B818E529E4FD80151962C9126FF1DC038
:103030000E94BF068A819B8187529E4FF801218999
:1030400027FFA2CF1BCB0E94FF05B5CF0E94FF0533
:10305000BCCF0E94FF05C4CF0E94FF05CBCF0E94CA
:10306000FF05D3CF0E94FF05DACF0E94FF05E2CF14
:10307000E199FECF9FBB8EBBE09A99278DB308954F
:10308000262FE199FECF9FBB8EBBE09A01970DB230
:10309000021631F02DBB0FB6F894E29AE19A0FBEFA
:1030A0000895262FE199FECF9FBB8EBB2DBB0FB697
:1030B000F894E29AE19A0FBE0196089597FB072EC5
:1030C00016F4009407D077FD09D00E947B1807FC06
:1030D00005D03EF4909581959F4F08957095619528
:1030E0007F4F0895EE0FFF1F0024001C0BBE0790BA
:1030F000F691E02D0994AA1BBB1B51E107C0AA1F42
:10310000BB1FA617B70710F0A61BB70B881F991F88
:103110005A95A9F780959095BC01CD0108950F931C
:103120001F93CF93DF93869F8001879F100D969FFB
:10313000100D1124C8010E94AB18EC01009729F072
:10314000A80170E060E00E94DD19CE01DF91CF910F
:103150001F910F9108950F931F93CF93DF938230A8
:10316000910510F482E090E0E091B103F091B20398
:1031700030E020E0B0E0A0E0309799F4211531056F
:1031800009F44AC0281B390B24303105D8F58A814F
:103190009B816115710589F1FB0193838283FE0197
:1031A00011C0408151810281138148175907E0F015
:1031B0004817590799F4109761F012960C931297DB
:1031C00013961C933296CF01DF91CF911F910F91EF
:1031D00008950093B1031093B203F4CF2115310584
:1031E00051F04217530738F0A901DB019A01BD01E4
:1031F000DF01F801C1CFEF01F9CF9093B2038093C3
:10320000B103CDCFFE01E20FF31F819391932250C2
:10321000310939832883D7CF2091AF033091B00390
:10322000232B41F420912A0130912B013093B003DC
:103230002093AF03209128013091290121153105F8
:1032400041F42DB73EB740912C0150912D01241B24
:10325000350BE091AF03F091B003E217F307A0F450
:103260002E1B3F0B2817390778F0AC014E5F5F4FDC
:103270002417350748F04E0F5F1F5093B00340935B
:10328000AF03819391939FCFF0E0E0E09CCFCF9389
:10329000DF930097E9F0FC01329713821282A0912C
:1032A000B103B091B203ED0130E020E01097A1F43A
:1032B00020813181820F931F2091AF033091B003A1
:1032C0002817390709F061C0F093B003E093AF030A
:1032D000DF91CF910895EA01CE17DF07E8F54A8123
:1032E0005B819E0141155105B1F7E901FB83EA833A
:1032F00049915991C40FD51FEC17FD0761F48081E6
:1033000091810296840F951FE901998388838281B8
:1033100093819B838A83F0E0E0E012968D919C91EB
:1033200013970097B9F52D913C911197CD01029615
:10333000820F931F2091AF033091B00328173907F4
:1033400039F6309751F51092B2031092B103B09351
:10335000B003A093AF03BCCFD383C283408151811C
:10336000840F951FC817D90761F44E5F5F4F88819E
:103370009981480F591F518340838A819B81938390
:1033800082832115310509F0B0CFF093B203E093A9
:10339000B1039ECFFD01DC01C0CF13821282D7CFD3
:1033A000FB01DC0104C08D910190801921F4415092
:1033B0005040C8F7881B990B0895DC0101C06D933C
:0C33C00041505040E0F70895F894FFCF12
:1033CC000CFF0BFF0AFF09FF08FF07FF06FF05FFB5
:1033DC0004FF03FF02FF01FF460400000000000091
:1033EC0000000000000000000000B3038000160184
:1033FC001401120110010E010C010A010801060151
:06340C00040102010001B1
:00000001FF
